{
	"contracts/test.sol": {
		"Inbox": {
			"abi": [
				{
					"anonymous": false,
					"inputs": [
						{
							"indexed": false,
							"internalType": "string",
							"name": "response",
							"type": "string"
						}
					],
					"name": "inboxResponse",
					"type": "event"
				},
				{
					"anonymous": false,
					"inputs": [
						{
							"indexed": false,
							"internalType": "string",
							"name": "_ipfsHash",
							"type": "string"
						},
						{
							"indexed": false,
							"internalType": "string",
							"name": "_address",
							"type": "string"
						}
					],
					"name": "ipfsSent",
					"type": "event"
				},
				{
					"inputs": [
						{
							"internalType": "string",
							"name": "_address",
							"type": "string"
						}
					],
					"name": "getHash",
					"outputs": [
						{
							"internalType": "string",
							"name": "",
							"type": "string"
						}
					],
					"stateMutability": "view",
					"type": "function"
				},
				{
					"inputs": [
						{
							"internalType": "string",
							"name": "",
							"type": "string"
						}
					],
					"name": "ipfsInbox",
					"outputs": [
						{
							"internalType": "string",
							"name": "",
							"type": "string"
						}
					],
					"stateMutability": "view",
					"type": "function"
				},
				{
					"inputs": [
						{
							"internalType": "string",
							"name": "_address",
							"type": "string"
						},
						{
							"internalType": "string",
							"name": "_ipfsHash",
							"type": "string"
						}
					],
					"name": "sendIPFS",
					"outputs": [],
					"stateMutability": "nonpayable",
					"type": "function"
				}
			],
			"devdoc": {
				"kind": "dev",
				"methods": {},
				"version": 1
			},
			"evm": {
				"assembly": "    /* \"contracts/test.sol\":62:929  contract Inbox {\r... */\n  mstore(0x40, 0x80)\n  callvalue\n  dup1\n  iszero\n  tag_1\n  jumpi\n  0x00\n  dup1\n  revert\ntag_1:\n  pop\n  dataSize(sub_0)\n  dup1\n  dataOffset(sub_0)\n  0x00\n  codecopy\n  0x00\n  return\nstop\n\nsub_0: assembly {\n        /* \"contracts/test.sol\":62:929  contract Inbox {\r... */\n      mstore(0x40, 0x80)\n      callvalue\n      dup1\n      iszero\n      tag_1\n      jumpi\n      0x00\n      dup1\n      revert\n    tag_1:\n      pop\n      jumpi(tag_2, lt(calldatasize, 0x04))\n      shr(0xe0, calldataload(0x00))\n      dup1\n      0x3bc86509\n      eq\n      tag_3\n      jumpi\n      dup1\n      0x5b6beeb9\n      eq\n      tag_4\n      jumpi\n      dup1\n      0xd9fb97f7\n      eq\n      tag_5\n      jumpi\n    tag_2:\n      0x00\n      dup1\n      revert\n        /* \"contracts/test.sol\":519:688  function sendIPFS(string memory _address, string memory _ipfsHash) public {\r... */\n    tag_3:\n      tag_6\n      0x04\n      dup1\n      calldatasize\n      sub\n      dup2\n      add\n      swap1\n      tag_7\n      swap2\n      swap1\n      tag_8\n      jump\t// in\n    tag_7:\n      tag_9\n      jump\t// in\n    tag_6:\n      stop\n        /* \"contracts/test.sol\":716:926  function getHash(string memory _address) public view returns (string memory) {\r... */\n    tag_4:\n      tag_10\n      0x04\n      dup1\n      calldatasize\n      sub\n      dup2\n      add\n      swap1\n      tag_11\n      swap2\n      swap1\n      tag_12\n      jump\t// in\n    tag_11:\n      tag_13\n      jump\t// in\n    tag_10:\n      mload(0x40)\n      tag_14\n      swap2\n      swap1\n      tag_15\n      jump\t// in\n    tag_14:\n      mload(0x40)\n      dup1\n      swap2\n      sub\n      swap1\n      return\n        /* \"contracts/test.sol\":84:126  mapping(string => string) public ipfsInbox */\n    tag_5:\n      tag_16\n      0x04\n      dup1\n      calldatasize\n      sub\n      dup2\n      add\n      swap1\n      tag_17\n      swap2\n      swap1\n      tag_12\n      jump\t// in\n    tag_17:\n      tag_18\n      jump\t// in\n    tag_16:\n      mload(0x40)\n      tag_19\n      swap2\n      swap1\n      tag_15\n      jump\t// in\n    tag_19:\n      mload(0x40)\n      dup1\n      swap2\n      sub\n      swap1\n      return\n        /* \"contracts/test.sol\":519:688  function sendIPFS(string memory _address, string memory _ipfsHash) public {\r... */\n    tag_9:\n        /* \"contracts/test.sol\":626:635  _ipfsHash */\n      dup1\n        /* \"contracts/test.sol\":604:613  ipfsInbox */\n      0x00\n        /* \"contracts/test.sol\":614:622  _address */\n      dup4\n        /* \"contracts/test.sol\":604:623  ipfsInbox[_address] */\n      mload(0x40)\n      tag_21\n      swap2\n      swap1\n      tag_22\n      jump\t// in\n    tag_21:\n      swap1\n      dup2\n      mstore\n      0x20\n      add\n      mload(0x40)\n      dup1\n      swap2\n      sub\n      swap1\n      keccak256\n        /* \"contracts/test.sol\":604:635  ipfsInbox[_address] = _ipfsHash */\n      swap1\n      dup1\n      mload\n      swap1\n      0x20\n      add\n      swap1\n      tag_23\n      swap3\n      swap2\n      swap1\n      tag_24\n      jump\t// in\n    tag_23:\n      pop\n        /* \"contracts/test.sol\":651:680  ipfsSent(_ipfsHash, _address) */\n      0xe20751acac1c1604f322f90c67a302e99b44a472645e625269c08832cded2340\n        /* \"contracts/test.sol\":660:669  _ipfsHash */\n      dup2\n        /* \"contracts/test.sol\":671:679  _address */\n      dup4\n        /* \"contracts/test.sol\":651:680  ipfsSent(_ipfsHash, _address) */\n      mload(0x40)\n      tag_25\n      swap3\n      swap2\n      swap1\n      tag_26\n      jump\t// in\n    tag_25:\n      mload(0x40)\n      dup1\n      swap2\n      sub\n      swap1\n      log1\n        /* \"contracts/test.sol\":519:688  function sendIPFS(string memory _address, string memory _ipfsHash) public {\r... */\n      pop\n      pop\n      jump\t// out\n        /* \"contracts/test.sol\":716:926  function getHash(string memory _address) public view returns (string memory) {\r... */\n    tag_13:\n        /* \"contracts/test.sol\":778:791  string memory */\n      0x60\n        /* \"contracts/test.sol\":804:827  string memory ipfs_hash */\n      0x00\n        /* \"contracts/test.sol\":830:839  ipfsInbox */\n      dup1\n        /* \"contracts/test.sol\":840:848  _address */\n      dup4\n        /* \"contracts/test.sol\":830:849  ipfsInbox[_address] */\n      mload(0x40)\n      tag_28\n      swap2\n      swap1\n      tag_22\n      jump\t// in\n    tag_28:\n      swap1\n      dup2\n      mstore\n      0x20\n      add\n      mload(0x40)\n      dup1\n      swap2\n      sub\n      swap1\n      keccak256\n        /* \"contracts/test.sol\":804:849  string memory ipfs_hash = ipfsInbox[_address] */\n      dup1\n      sload\n      tag_29\n      swap1\n      tag_30\n      jump\t// in\n    tag_29:\n      dup1\n      0x1f\n      add\n      0x20\n      dup1\n      swap2\n      div\n      mul\n      0x20\n      add\n      mload(0x40)\n      swap1\n      dup2\n      add\n      0x40\n      mstore\n      dup1\n      swap3\n      swap2\n      swap1\n      dup2\n      dup2\n      mstore\n      0x20\n      add\n      dup3\n      dup1\n      sload\n      tag_31\n      swap1\n      tag_30\n      jump\t// in\n    tag_31:\n      dup1\n      iszero\n      tag_32\n      jumpi\n      dup1\n      0x1f\n      lt\n      tag_33\n      jumpi\n      0x0100\n      dup1\n      dup4\n      sload\n      div\n      mul\n      dup4\n      mstore\n      swap2\n      0x20\n      add\n      swap2\n      jump(tag_32)\n    tag_33:\n      dup3\n      add\n      swap2\n      swap1\n      0x00\n      mstore\n      keccak256(0x00, 0x20)\n      swap1\n    tag_34:\n      dup2\n      sload\n      dup2\n      mstore\n      swap1\n      0x01\n      add\n      swap1\n      0x20\n      add\n      dup1\n      dup4\n      gt\n      tag_34\n      jumpi\n      dup3\n      swap1\n      sub\n      0x1f\n      and\n      dup3\n      add\n      swap2\n    tag_32:\n      pop\n      pop\n      pop\n      pop\n      pop\n      swap1\n      pop\n        /* \"contracts/test.sol\":909:918  ipfs_hash */\n      dup1\n        /* \"contracts/test.sol\":902:918  return ipfs_hash */\n      swap2\n      pop\n      pop\n        /* \"contracts/test.sol\":716:926  function getHash(string memory _address) public view returns (string memory) {\r... */\n      swap2\n      swap1\n      pop\n      jump\t// out\n        /* \"contracts/test.sol\":84:126  mapping(string => string) public ipfsInbox */\n    tag_18:\n      0x00\n      dup2\n      dup1\n      mload\n      0x20\n      dup2\n      add\n      dup3\n      add\n      dup1\n      mload\n      dup5\n      dup3\n      mstore\n      0x20\n      dup4\n      add\n      0x20\n      dup6\n      add\n      keccak256\n      dup2\n      dup4\n      mstore\n      dup1\n      swap6\n      pop\n      pop\n      pop\n      pop\n      pop\n      pop\n      0x00\n      swap2\n      pop\n      swap1\n      pop\n      dup1\n      sload\n      tag_35\n      swap1\n      tag_30\n      jump\t// in\n    tag_35:\n      dup1\n      0x1f\n      add\n      0x20\n      dup1\n      swap2\n      div\n      mul\n      0x20\n      add\n      mload(0x40)\n      swap1\n      dup2\n      add\n      0x40\n      mstore\n      dup1\n      swap3\n      swap2\n      swap1\n      dup2\n      dup2\n      mstore\n      0x20\n      add\n      dup3\n      dup1\n      sload\n      tag_36\n      swap1\n      tag_30\n      jump\t// in\n    tag_36:\n      dup1\n      iszero\n      tag_37\n      jumpi\n      dup1\n      0x1f\n      lt\n      tag_38\n      jumpi\n      0x0100\n      dup1\n      dup4\n      sload\n      div\n      mul\n      dup4\n      mstore\n      swap2\n      0x20\n      add\n      swap2\n      jump(tag_37)\n    tag_38:\n      dup3\n      add\n      swap2\n      swap1\n      0x00\n      mstore\n      keccak256(0x00, 0x20)\n      swap1\n    tag_39:\n      dup2\n      sload\n      dup2\n      mstore\n      swap1\n      0x01\n      add\n      swap1\n      0x20\n      add\n      dup1\n      dup4\n      gt\n      tag_39\n      jumpi\n      dup3\n      swap1\n      sub\n      0x1f\n      and\n      dup3\n      add\n      swap2\n    tag_37:\n      pop\n      pop\n      pop\n      pop\n      pop\n      dup2\n      jump\t// out\n    tag_24:\n      dup3\n      dup1\n      sload\n      tag_40\n      swap1\n      tag_30\n      jump\t// in\n    tag_40:\n      swap1\n      0x00\n      mstore\n      keccak256(0x00, 0x20)\n      swap1\n      0x1f\n      add\n      0x20\n      swap1\n      div\n      dup2\n      add\n      swap3\n      dup3\n      tag_42\n      jumpi\n      0x00\n      dup6\n      sstore\n      jump(tag_41)\n    tag_42:\n      dup3\n      0x1f\n      lt\n      tag_43\n      jumpi\n      dup1\n      mload\n      not(0xff)\n      and\n      dup4\n      dup1\n      add\n      or\n      dup6\n      sstore\n      jump(tag_41)\n    tag_43:\n      dup3\n      dup1\n      add\n      0x01\n      add\n      dup6\n      sstore\n      dup3\n      iszero\n      tag_41\n      jumpi\n      swap2\n      dup3\n      add\n    tag_44:\n      dup3\n      dup2\n      gt\n      iszero\n      tag_45\n      jumpi\n      dup3\n      mload\n      dup3\n      sstore\n      swap2\n      0x20\n      add\n      swap2\n      swap1\n      0x01\n      add\n      swap1\n      jump(tag_44)\n    tag_45:\n    tag_41:\n      pop\n      swap1\n      pop\n      tag_46\n      swap2\n      swap1\n      tag_47\n      jump\t// in\n    tag_46:\n      pop\n      swap1\n      jump\t// out\n    tag_47:\n    tag_48:\n      dup1\n      dup3\n      gt\n      iszero\n      tag_49\n      jumpi\n      0x00\n      dup2\n      0x00\n      swap1\n      sstore\n      pop\n      0x01\n      add\n      jump(tag_48)\n    tag_49:\n      pop\n      swap1\n      jump\t// out\n        /* \"#utility.yul\":7:419   */\n    tag_51:\n        /* \"#utility.yul\":85:90   */\n      0x00\n        /* \"#utility.yul\":110:176   */\n      tag_53\n        /* \"#utility.yul\":126:175   */\n      tag_54\n        /* \"#utility.yul\":168:174   */\n      dup5\n        /* \"#utility.yul\":126:175   */\n      tag_55\n      jump\t// in\n    tag_54:\n        /* \"#utility.yul\":110:176   */\n      tag_56\n      jump\t// in\n    tag_53:\n        /* \"#utility.yul\":101:176   */\n      swap1\n      pop\n        /* \"#utility.yul\":199:205   */\n      dup3\n        /* \"#utility.yul\":192:197   */\n      dup2\n        /* \"#utility.yul\":185:206   */\n      mstore\n        /* \"#utility.yul\":237:241   */\n      0x20\n        /* \"#utility.yul\":230:235   */\n      dup2\n        /* \"#utility.yul\":226:242   */\n      add\n        /* \"#utility.yul\":275:278   */\n      dup5\n        /* \"#utility.yul\":266:272   */\n      dup5\n        /* \"#utility.yul\":261:264   */\n      dup5\n        /* \"#utility.yul\":257:273   */\n      add\n        /* \"#utility.yul\":254:279   */\n      gt\n        /* \"#utility.yul\":251:363   */\n      iszero\n      tag_57\n      jumpi\n        /* \"#utility.yul\":282:361   */\n      tag_58\n      tag_59\n      jump\t// in\n    tag_58:\n        /* \"#utility.yul\":251:363   */\n    tag_57:\n        /* \"#utility.yul\":372:413   */\n      tag_60\n        /* \"#utility.yul\":406:412   */\n      dup5\n        /* \"#utility.yul\":401:404   */\n      dup3\n        /* \"#utility.yul\":396:399   */\n      dup6\n        /* \"#utility.yul\":372:413   */\n      tag_61\n      jump\t// in\n    tag_60:\n        /* \"#utility.yul\":91:419   */\n      pop\n        /* \"#utility.yul\":7:419   */\n      swap4\n      swap3\n      pop\n      pop\n      pop\n      jump\t// out\n        /* \"#utility.yul\":439:779   */\n    tag_62:\n        /* \"#utility.yul\":495:500   */\n      0x00\n        /* \"#utility.yul\":544:547   */\n      dup3\n        /* \"#utility.yul\":537:541   */\n      0x1f\n        /* \"#utility.yul\":529:535   */\n      dup4\n        /* \"#utility.yul\":525:542   */\n      add\n        /* \"#utility.yul\":521:548   */\n      slt\n        /* \"#utility.yul\":511:633   */\n      tag_64\n      jumpi\n        /* \"#utility.yul\":552:631   */\n      tag_65\n      tag_66\n      jump\t// in\n    tag_65:\n        /* \"#utility.yul\":511:633   */\n    tag_64:\n        /* \"#utility.yul\":669:675   */\n      dup2\n        /* \"#utility.yul\":656:676   */\n      calldataload\n        /* \"#utility.yul\":694:773   */\n      tag_67\n        /* \"#utility.yul\":769:772   */\n      dup5\n        /* \"#utility.yul\":761:767   */\n      dup3\n        /* \"#utility.yul\":754:758   */\n      0x20\n        /* \"#utility.yul\":746:752   */\n      dup7\n        /* \"#utility.yul\":742:759   */\n      add\n        /* \"#utility.yul\":694:773   */\n      tag_51\n      jump\t// in\n    tag_67:\n        /* \"#utility.yul\":685:773   */\n      swap2\n      pop\n        /* \"#utility.yul\":501:779   */\n      pop\n        /* \"#utility.yul\":439:779   */\n      swap3\n      swap2\n      pop\n      pop\n      jump\t// out\n        /* \"#utility.yul\":785:1294   */\n    tag_12:\n        /* \"#utility.yul\":854:860   */\n      0x00\n        /* \"#utility.yul\":903:905   */\n      0x20\n        /* \"#utility.yul\":891:900   */\n      dup3\n        /* \"#utility.yul\":882:889   */\n      dup5\n        /* \"#utility.yul\":878:901   */\n      sub\n        /* \"#utility.yul\":874:906   */\n      slt\n        /* \"#utility.yul\":871:990   */\n      iszero\n      tag_69\n      jumpi\n        /* \"#utility.yul\":909:988   */\n      tag_70\n      tag_71\n      jump\t// in\n    tag_70:\n        /* \"#utility.yul\":871:990   */\n    tag_69:\n        /* \"#utility.yul\":1057:1058   */\n      0x00\n        /* \"#utility.yul\":1046:1055   */\n      dup3\n        /* \"#utility.yul\":1042:1059   */\n      add\n        /* \"#utility.yul\":1029:1060   */\n      calldataload\n        /* \"#utility.yul\":1087:1105   */\n      0xffffffffffffffff\n        /* \"#utility.yul\":1079:1085   */\n      dup2\n        /* \"#utility.yul\":1076:1106   */\n      gt\n        /* \"#utility.yul\":1073:1190   */\n      iszero\n      tag_72\n      jumpi\n        /* \"#utility.yul\":1109:1188   */\n      tag_73\n      tag_74\n      jump\t// in\n    tag_73:\n        /* \"#utility.yul\":1073:1190   */\n    tag_72:\n        /* \"#utility.yul\":1214:1277   */\n      tag_75\n        /* \"#utility.yul\":1269:1276   */\n      dup5\n        /* \"#utility.yul\":1260:1266   */\n      dup3\n        /* \"#utility.yul\":1249:1258   */\n      dup6\n        /* \"#utility.yul\":1245:1267   */\n      add\n        /* \"#utility.yul\":1214:1277   */\n      tag_62\n      jump\t// in\n    tag_75:\n        /* \"#utility.yul\":1204:1277   */\n      swap2\n      pop\n        /* \"#utility.yul\":1000:1287   */\n      pop\n        /* \"#utility.yul\":785:1294   */\n      swap3\n      swap2\n      pop\n      pop\n      jump\t// out\n        /* \"#utility.yul\":1300:2134   */\n    tag_8:\n        /* \"#utility.yul\":1388:1394   */\n      0x00\n        /* \"#utility.yul\":1396:1402   */\n      dup1\n        /* \"#utility.yul\":1445:1447   */\n      0x40\n        /* \"#utility.yul\":1433:1442   */\n      dup4\n        /* \"#utility.yul\":1424:1431   */\n      dup6\n        /* \"#utility.yul\":1420:1443   */\n      sub\n        /* \"#utility.yul\":1416:1448   */\n      slt\n        /* \"#utility.yul\":1413:1532   */\n      iszero\n      tag_77\n      jumpi\n        /* \"#utility.yul\":1451:1530   */\n      tag_78\n      tag_71\n      jump\t// in\n    tag_78:\n        /* \"#utility.yul\":1413:1532   */\n    tag_77:\n        /* \"#utility.yul\":1599:1600   */\n      0x00\n        /* \"#utility.yul\":1588:1597   */\n      dup4\n        /* \"#utility.yul\":1584:1601   */\n      add\n        /* \"#utility.yul\":1571:1602   */\n      calldataload\n        /* \"#utility.yul\":1629:1647   */\n      0xffffffffffffffff\n        /* \"#utility.yul\":1621:1627   */\n      dup2\n        /* \"#utility.yul\":1618:1648   */\n      gt\n        /* \"#utility.yul\":1615:1732   */\n      iszero\n      tag_79\n      jumpi\n        /* \"#utility.yul\":1651:1730   */\n      tag_80\n      tag_74\n      jump\t// in\n    tag_80:\n        /* \"#utility.yul\":1615:1732   */\n    tag_79:\n        /* \"#utility.yul\":1756:1819   */\n      tag_81\n        /* \"#utility.yul\":1811:1818   */\n      dup6\n        /* \"#utility.yul\":1802:1808   */\n      dup3\n        /* \"#utility.yul\":1791:1800   */\n      dup7\n        /* \"#utility.yul\":1787:1809   */\n      add\n        /* \"#utility.yul\":1756:1819   */\n      tag_62\n      jump\t// in\n    tag_81:\n        /* \"#utility.yul\":1746:1819   */\n      swap3\n      pop\n        /* \"#utility.yul\":1542:1829   */\n      pop\n        /* \"#utility.yul\":1896:1898   */\n      0x20\n        /* \"#utility.yul\":1885:1894   */\n      dup4\n        /* \"#utility.yul\":1881:1899   */\n      add\n        /* \"#utility.yul\":1868:1900   */\n      calldataload\n        /* \"#utility.yul\":1927:1945   */\n      0xffffffffffffffff\n        /* \"#utility.yul\":1919:1925   */\n      dup2\n        /* \"#utility.yul\":1916:1946   */\n      gt\n        /* \"#utility.yul\":1913:2030   */\n      iszero\n      tag_82\n      jumpi\n        /* \"#utility.yul\":1949:2028   */\n      tag_83\n      tag_74\n      jump\t// in\n    tag_83:\n        /* \"#utility.yul\":1913:2030   */\n    tag_82:\n        /* \"#utility.yul\":2054:2117   */\n      tag_84\n        /* \"#utility.yul\":2109:2116   */\n      dup6\n        /* \"#utility.yul\":2100:2106   */\n      dup3\n        /* \"#utility.yul\":2089:2098   */\n      dup7\n        /* \"#utility.yul\":2085:2107   */\n      add\n        /* \"#utility.yul\":2054:2117   */\n      tag_62\n      jump\t// in\n    tag_84:\n        /* \"#utility.yul\":2044:2117   */\n      swap2\n      pop\n        /* \"#utility.yul\":1839:2127   */\n      pop\n        /* \"#utility.yul\":1300:2134   */\n      swap3\n      pop\n      swap3\n      swap1\n      pop\n      jump\t// out\n        /* \"#utility.yul\":2140:2504   */\n    tag_85:\n        /* \"#utility.yul\":2228:2231   */\n      0x00\n        /* \"#utility.yul\":2256:2295   */\n      tag_87\n        /* \"#utility.yul\":2289:2294   */\n      dup3\n        /* \"#utility.yul\":2256:2295   */\n      tag_88\n      jump\t// in\n    tag_87:\n        /* \"#utility.yul\":2311:2382   */\n      tag_89\n        /* \"#utility.yul\":2375:2381   */\n      dup2\n        /* \"#utility.yul\":2370:2373   */\n      dup6\n        /* \"#utility.yul\":2311:2382   */\n      tag_90\n      jump\t// in\n    tag_89:\n        /* \"#utility.yul\":2304:2382   */\n      swap4\n      pop\n        /* \"#utility.yul\":2391:2443   */\n      tag_91\n        /* \"#utility.yul\":2436:2442   */\n      dup2\n        /* \"#utility.yul\":2431:2434   */\n      dup6\n        /* \"#utility.yul\":2424:2428   */\n      0x20\n        /* \"#utility.yul\":2417:2422   */\n      dup7\n        /* \"#utility.yul\":2413:2429   */\n      add\n        /* \"#utility.yul\":2391:2443   */\n      tag_92\n      jump\t// in\n    tag_91:\n        /* \"#utility.yul\":2468:2497   */\n      tag_93\n        /* \"#utility.yul\":2490:2496   */\n      dup2\n        /* \"#utility.yul\":2468:2497   */\n      tag_94\n      jump\t// in\n    tag_93:\n        /* \"#utility.yul\":2463:2466   */\n      dup5\n        /* \"#utility.yul\":2459:2498   */\n      add\n        /* \"#utility.yul\":2452:2498   */\n      swap2\n      pop\n        /* \"#utility.yul\":2232:2504   */\n      pop\n        /* \"#utility.yul\":2140:2504   */\n      swap3\n      swap2\n      pop\n      pop\n      jump\t// out\n        /* \"#utility.yul\":2510:2887   */\n    tag_95:\n        /* \"#utility.yul\":2616:2619   */\n      0x00\n        /* \"#utility.yul\":2644:2683   */\n      tag_97\n        /* \"#utility.yul\":2677:2682   */\n      dup3\n        /* \"#utility.yul\":2644:2683   */\n      tag_88\n      jump\t// in\n    tag_97:\n        /* \"#utility.yul\":2699:2788   */\n      tag_98\n        /* \"#utility.yul\":2781:2787   */\n      dup2\n        /* \"#utility.yul\":2776:2779   */\n      dup6\n        /* \"#utility.yul\":2699:2788   */\n      tag_99\n      jump\t// in\n    tag_98:\n        /* \"#utility.yul\":2692:2788   */\n      swap4\n      pop\n        /* \"#utility.yul\":2797:2849   */\n      tag_100\n        /* \"#utility.yul\":2842:2848   */\n      dup2\n        /* \"#utility.yul\":2837:2840   */\n      dup6\n        /* \"#utility.yul\":2830:2834   */\n      0x20\n        /* \"#utility.yul\":2823:2828   */\n      dup7\n        /* \"#utility.yul\":2819:2835   */\n      add\n        /* \"#utility.yul\":2797:2849   */\n      tag_92\n      jump\t// in\n    tag_100:\n        /* \"#utility.yul\":2874:2880   */\n      dup1\n        /* \"#utility.yul\":2869:2872   */\n      dup5\n        /* \"#utility.yul\":2865:2881   */\n      add\n        /* \"#utility.yul\":2858:2881   */\n      swap2\n      pop\n        /* \"#utility.yul\":2620:2887   */\n      pop\n        /* \"#utility.yul\":2510:2887   */\n      swap3\n      swap2\n      pop\n      pop\n      jump\t// out\n        /* \"#utility.yul\":2893:3168   */\n    tag_22:\n        /* \"#utility.yul\":3025:3028   */\n      0x00\n        /* \"#utility.yul\":3047:3142   */\n      tag_102\n        /* \"#utility.yul\":3138:3141   */\n      dup3\n        /* \"#utility.yul\":3129:3135   */\n      dup5\n        /* \"#utility.yul\":3047:3142   */\n      tag_95\n      jump\t// in\n    tag_102:\n        /* \"#utility.yul\":3040:3142   */\n      swap2\n      pop\n        /* \"#utility.yul\":3159:3162   */\n      dup2\n        /* \"#utility.yul\":3152:3162   */\n      swap1\n      pop\n        /* \"#utility.yul\":2893:3168   */\n      swap3\n      swap2\n      pop\n      pop\n      jump\t// out\n        /* \"#utility.yul\":3174:3487   */\n    tag_15:\n        /* \"#utility.yul\":3287:3291   */\n      0x00\n        /* \"#utility.yul\":3325:3327   */\n      0x20\n        /* \"#utility.yul\":3314:3323   */\n      dup3\n        /* \"#utility.yul\":3310:3328   */\n      add\n        /* \"#utility.yul\":3302:3328   */\n      swap1\n      pop\n        /* \"#utility.yul\":3374:3383   */\n      dup2\n        /* \"#utility.yul\":3368:3372   */\n      dup2\n        /* \"#utility.yul\":3364:3384   */\n      sub\n        /* \"#utility.yul\":3360:3361   */\n      0x00\n        /* \"#utility.yul\":3349:3358   */\n      dup4\n        /* \"#utility.yul\":3345:3362   */\n      add\n        /* \"#utility.yul\":3338:3385   */\n      mstore\n        /* \"#utility.yul\":3402:3480   */\n      tag_104\n        /* \"#utility.yul\":3475:3479   */\n      dup2\n        /* \"#utility.yul\":3466:3472   */\n      dup5\n        /* \"#utility.yul\":3402:3480   */\n      tag_85\n      jump\t// in\n    tag_104:\n        /* \"#utility.yul\":3394:3480   */\n      swap1\n      pop\n        /* \"#utility.yul\":3174:3487   */\n      swap3\n      swap2\n      pop\n      pop\n      jump\t// out\n        /* \"#utility.yul\":3493:4007   */\n    tag_26:\n        /* \"#utility.yul\":3654:3658   */\n      0x00\n        /* \"#utility.yul\":3692:3694   */\n      0x40\n        /* \"#utility.yul\":3681:3690   */\n      dup3\n        /* \"#utility.yul\":3677:3695   */\n      add\n        /* \"#utility.yul\":3669:3695   */\n      swap1\n      pop\n        /* \"#utility.yul\":3741:3750   */\n      dup2\n        /* \"#utility.yul\":3735:3739   */\n      dup2\n        /* \"#utility.yul\":3731:3751   */\n      sub\n        /* \"#utility.yul\":3727:3728   */\n      0x00\n        /* \"#utility.yul\":3716:3725   */\n      dup4\n        /* \"#utility.yul\":3712:3729   */\n      add\n        /* \"#utility.yul\":3705:3752   */\n      mstore\n        /* \"#utility.yul\":3769:3847   */\n      tag_106\n        /* \"#utility.yul\":3842:3846   */\n      dup2\n        /* \"#utility.yul\":3833:3839   */\n      dup6\n        /* \"#utility.yul\":3769:3847   */\n      tag_85\n      jump\t// in\n    tag_106:\n        /* \"#utility.yul\":3761:3847   */\n      swap1\n      pop\n        /* \"#utility.yul\":3894:3903   */\n      dup2\n        /* \"#utility.yul\":3888:3892   */\n      dup2\n        /* \"#utility.yul\":3884:3904   */\n      sub\n        /* \"#utility.yul\":3879:3881   */\n      0x20\n        /* \"#utility.yul\":3868:3877   */\n      dup4\n        /* \"#utility.yul\":3864:3882   */\n      add\n        /* \"#utility.yul\":3857:3905   */\n      mstore\n        /* \"#utility.yul\":3922:4000   */\n      tag_107\n        /* \"#utility.yul\":3995:3999   */\n      dup2\n        /* \"#utility.yul\":3986:3992   */\n      dup5\n        /* \"#utility.yul\":3922:4000   */\n      tag_85\n      jump\t// in\n    tag_107:\n        /* \"#utility.yul\":3914:4000   */\n      swap1\n      pop\n        /* \"#utility.yul\":3493:4007   */\n      swap4\n      swap3\n      pop\n      pop\n      pop\n      jump\t// out\n        /* \"#utility.yul\":4013:4142   */\n    tag_56:\n        /* \"#utility.yul\":4047:4053   */\n      0x00\n        /* \"#utility.yul\":4074:4094   */\n      tag_109\n      tag_110\n      jump\t// in\n    tag_109:\n        /* \"#utility.yul\":4064:4094   */\n      swap1\n      pop\n        /* \"#utility.yul\":4103:4136   */\n      tag_111\n        /* \"#utility.yul\":4131:4135   */\n      dup3\n        /* \"#utility.yul\":4123:4129   */\n      dup3\n        /* \"#utility.yul\":4103:4136   */\n      tag_112\n      jump\t// in\n    tag_111:\n        /* \"#utility.yul\":4013:4142   */\n      swap2\n      swap1\n      pop\n      jump\t// out\n        /* \"#utility.yul\":4148:4223   */\n    tag_110:\n        /* \"#utility.yul\":4181:4187   */\n      0x00\n        /* \"#utility.yul\":4214:4216   */\n      0x40\n        /* \"#utility.yul\":4208:4217   */\n      mload\n        /* \"#utility.yul\":4198:4217   */\n      swap1\n      pop\n        /* \"#utility.yul\":4148:4223   */\n      swap1\n      jump\t// out\n        /* \"#utility.yul\":4229:4537   */\n    tag_55:\n        /* \"#utility.yul\":4291:4295   */\n      0x00\n        /* \"#utility.yul\":4381:4399   */\n      0xffffffffffffffff\n        /* \"#utility.yul\":4373:4379   */\n      dup3\n        /* \"#utility.yul\":4370:4400   */\n      gt\n        /* \"#utility.yul\":4367:4423   */\n      iszero\n      tag_115\n      jumpi\n        /* \"#utility.yul\":4403:4421   */\n      tag_116\n      tag_117\n      jump\t// in\n    tag_116:\n        /* \"#utility.yul\":4367:4423   */\n    tag_115:\n        /* \"#utility.yul\":4441:4470   */\n      tag_118\n        /* \"#utility.yul\":4463:4469   */\n      dup3\n        /* \"#utility.yul\":4441:4470   */\n      tag_94\n      jump\t// in\n    tag_118:\n        /* \"#utility.yul\":4433:4470   */\n      swap1\n      pop\n        /* \"#utility.yul\":4525:4529   */\n      0x20\n        /* \"#utility.yul\":4519:4523   */\n      dup2\n        /* \"#utility.yul\":4515:4530   */\n      add\n        /* \"#utility.yul\":4507:4530   */\n      swap1\n      pop\n        /* \"#utility.yul\":4229:4537   */\n      swap2\n      swap1\n      pop\n      jump\t// out\n        /* \"#utility.yul\":4543:4642   */\n    tag_88:\n        /* \"#utility.yul\":4595:4601   */\n      0x00\n        /* \"#utility.yul\":4629:4634   */\n      dup2\n        /* \"#utility.yul\":4623:4635   */\n      mload\n        /* \"#utility.yul\":4613:4635   */\n      swap1\n      pop\n        /* \"#utility.yul\":4543:4642   */\n      swap2\n      swap1\n      pop\n      jump\t// out\n        /* \"#utility.yul\":4648:4817   */\n    tag_90:\n        /* \"#utility.yul\":4732:4743   */\n      0x00\n        /* \"#utility.yul\":4766:4772   */\n      dup3\n        /* \"#utility.yul\":4761:4764   */\n      dup3\n        /* \"#utility.yul\":4754:4773   */\n      mstore\n        /* \"#utility.yul\":4806:4810   */\n      0x20\n        /* \"#utility.yul\":4801:4804   */\n      dup3\n        /* \"#utility.yul\":4797:4811   */\n      add\n        /* \"#utility.yul\":4782:4811   */\n      swap1\n      pop\n        /* \"#utility.yul\":4648:4817   */\n      swap3\n      swap2\n      pop\n      pop\n      jump\t// out\n        /* \"#utility.yul\":4823:4971   */\n    tag_99:\n        /* \"#utility.yul\":4925:4936   */\n      0x00\n        /* \"#utility.yul\":4962:4965   */\n      dup2\n        /* \"#utility.yul\":4947:4965   */\n      swap1\n      pop\n        /* \"#utility.yul\":4823:4971   */\n      swap3\n      swap2\n      pop\n      pop\n      jump\t// out\n        /* \"#utility.yul\":4977:5131   */\n    tag_61:\n        /* \"#utility.yul\":5061:5067   */\n      dup3\n        /* \"#utility.yul\":5056:5059   */\n      dup2\n        /* \"#utility.yul\":5051:5054   */\n      dup4\n        /* \"#utility.yul\":5038:5068   */\n      calldatacopy\n        /* \"#utility.yul\":5123:5124   */\n      0x00\n        /* \"#utility.yul\":5114:5120   */\n      dup4\n        /* \"#utility.yul\":5109:5112   */\n      dup4\n        /* \"#utility.yul\":5105:5121   */\n      add\n        /* \"#utility.yul\":5098:5125   */\n      mstore\n        /* \"#utility.yul\":4977:5131   */\n      pop\n      pop\n      pop\n      jump\t// out\n        /* \"#utility.yul\":5137:5444   */\n    tag_92:\n        /* \"#utility.yul\":5205:5206   */\n      0x00\n        /* \"#utility.yul\":5215:5328   */\n    tag_124:\n        /* \"#utility.yul\":5229:5235   */\n      dup4\n        /* \"#utility.yul\":5226:5227   */\n      dup2\n        /* \"#utility.yul\":5223:5236   */\n      lt\n        /* \"#utility.yul\":5215:5328   */\n      iszero\n      tag_126\n      jumpi\n        /* \"#utility.yul\":5314:5315   */\n      dup1\n        /* \"#utility.yul\":5309:5312   */\n      dup3\n        /* \"#utility.yul\":5305:5316   */\n      add\n        /* \"#utility.yul\":5299:5317   */\n      mload\n        /* \"#utility.yul\":5295:5296   */\n      dup2\n        /* \"#utility.yul\":5290:5293   */\n      dup5\n        /* \"#utility.yul\":5286:5297   */\n      add\n        /* \"#utility.yul\":5279:5318   */\n      mstore\n        /* \"#utility.yul\":5251:5253   */\n      0x20\n        /* \"#utility.yul\":5248:5249   */\n      dup2\n        /* \"#utility.yul\":5244:5254   */\n      add\n        /* \"#utility.yul\":5239:5254   */\n      swap1\n      pop\n        /* \"#utility.yul\":5215:5328   */\n      jump(tag_124)\n    tag_126:\n        /* \"#utility.yul\":5346:5352   */\n      dup4\n        /* \"#utility.yul\":5343:5344   */\n      dup2\n        /* \"#utility.yul\":5340:5353   */\n      gt\n        /* \"#utility.yul\":5337:5438   */\n      iszero\n      tag_127\n      jumpi\n        /* \"#utility.yul\":5426:5427   */\n      0x00\n        /* \"#utility.yul\":5417:5423   */\n      dup5\n        /* \"#utility.yul\":5412:5415   */\n      dup5\n        /* \"#utility.yul\":5408:5424   */\n      add\n        /* \"#utility.yul\":5401:5428   */\n      mstore\n        /* \"#utility.yul\":5337:5438   */\n    tag_127:\n        /* \"#utility.yul\":5186:5444   */\n      pop\n        /* \"#utility.yul\":5137:5444   */\n      pop\n      pop\n      pop\n      jump\t// out\n        /* \"#utility.yul\":5450:5770   */\n    tag_30:\n        /* \"#utility.yul\":5494:5500   */\n      0x00\n        /* \"#utility.yul\":5531:5532   */\n      0x02\n        /* \"#utility.yul\":5525:5529   */\n      dup3\n        /* \"#utility.yul\":5521:5533   */\n      div\n        /* \"#utility.yul\":5511:5533   */\n      swap1\n      pop\n        /* \"#utility.yul\":5578:5579   */\n      0x01\n        /* \"#utility.yul\":5572:5576   */\n      dup3\n        /* \"#utility.yul\":5568:5580   */\n      and\n        /* \"#utility.yul\":5599:5617   */\n      dup1\n        /* \"#utility.yul\":5589:5670   */\n      tag_129\n      jumpi\n        /* \"#utility.yul\":5655:5659   */\n      0x7f\n        /* \"#utility.yul\":5647:5653   */\n      dup3\n        /* \"#utility.yul\":5643:5660   */\n      and\n        /* \"#utility.yul\":5633:5660   */\n      swap2\n      pop\n        /* \"#utility.yul\":5589:5670   */\n    tag_129:\n        /* \"#utility.yul\":5717:5719   */\n      0x20\n        /* \"#utility.yul\":5709:5715   */\n      dup3\n        /* \"#utility.yul\":5706:5720   */\n      lt\n        /* \"#utility.yul\":5686:5704   */\n      dup2\n        /* \"#utility.yul\":5683:5721   */\n      eq\n        /* \"#utility.yul\":5680:5764   */\n      iszero\n      tag_130\n      jumpi\n        /* \"#utility.yul\":5736:5754   */\n      tag_131\n      tag_132\n      jump\t// in\n    tag_131:\n        /* \"#utility.yul\":5680:5764   */\n    tag_130:\n        /* \"#utility.yul\":5501:5770   */\n      pop\n        /* \"#utility.yul\":5450:5770   */\n      swap2\n      swap1\n      pop\n      jump\t// out\n        /* \"#utility.yul\":5776:6057   */\n    tag_112:\n        /* \"#utility.yul\":5859:5886   */\n      tag_134\n        /* \"#utility.yul\":5881:5885   */\n      dup3\n        /* \"#utility.yul\":5859:5886   */\n      tag_94\n      jump\t// in\n    tag_134:\n        /* \"#utility.yul\":5851:5857   */\n      dup2\n        /* \"#utility.yul\":5847:5887   */\n      add\n        /* \"#utility.yul\":5989:5995   */\n      dup2\n        /* \"#utility.yul\":5977:5987   */\n      dup2\n        /* \"#utility.yul\":5974:5996   */\n      lt\n        /* \"#utility.yul\":5953:5971   */\n      0xffffffffffffffff\n        /* \"#utility.yul\":5941:5951   */\n      dup3\n        /* \"#utility.yul\":5938:5972   */\n      gt\n        /* \"#utility.yul\":5935:5997   */\n      or\n        /* \"#utility.yul\":5932:6020   */\n      iszero\n      tag_135\n      jumpi\n        /* \"#utility.yul\":6000:6018   */\n      tag_136\n      tag_117\n      jump\t// in\n    tag_136:\n        /* \"#utility.yul\":5932:6020   */\n    tag_135:\n        /* \"#utility.yul\":6040:6050   */\n      dup1\n        /* \"#utility.yul\":6036:6038   */\n      0x40\n        /* \"#utility.yul\":6029:6051   */\n      mstore\n        /* \"#utility.yul\":5819:6057   */\n      pop\n        /* \"#utility.yul\":5776:6057   */\n      pop\n      pop\n      jump\t// out\n        /* \"#utility.yul\":6063:6243   */\n    tag_132:\n        /* \"#utility.yul\":6111:6188   */\n      0x4e487b7100000000000000000000000000000000000000000000000000000000\n        /* \"#utility.yul\":6108:6109   */\n      0x00\n        /* \"#utility.yul\":6101:6189   */\n      mstore\n        /* \"#utility.yul\":6208:6212   */\n      0x22\n        /* \"#utility.yul\":6205:6206   */\n      0x04\n        /* \"#utility.yul\":6198:6213   */\n      mstore\n        /* \"#utility.yul\":6232:6236   */\n      0x24\n        /* \"#utility.yul\":6229:6230   */\n      0x00\n        /* \"#utility.yul\":6222:6237   */\n      revert\n        /* \"#utility.yul\":6249:6429   */\n    tag_117:\n        /* \"#utility.yul\":6297:6374   */\n      0x4e487b7100000000000000000000000000000000000000000000000000000000\n        /* \"#utility.yul\":6294:6295   */\n      0x00\n        /* \"#utility.yul\":6287:6375   */\n      mstore\n        /* \"#utility.yul\":6394:6398   */\n      0x41\n        /* \"#utility.yul\":6391:6392   */\n      0x04\n        /* \"#utility.yul\":6384:6399   */\n      mstore\n        /* \"#utility.yul\":6418:6422   */\n      0x24\n        /* \"#utility.yul\":6415:6416   */\n      0x00\n        /* \"#utility.yul\":6408:6423   */\n      revert\n        /* \"#utility.yul\":6435:6552   */\n    tag_66:\n        /* \"#utility.yul\":6544:6545   */\n      0x00\n        /* \"#utility.yul\":6541:6542   */\n      dup1\n        /* \"#utility.yul\":6534:6546   */\n      revert\n        /* \"#utility.yul\":6558:6675   */\n    tag_59:\n        /* \"#utility.yul\":6667:6668   */\n      0x00\n        /* \"#utility.yul\":6664:6665   */\n      dup1\n        /* \"#utility.yul\":6657:6669   */\n      revert\n        /* \"#utility.yul\":6681:6798   */\n    tag_74:\n        /* \"#utility.yul\":6790:6791   */\n      0x00\n        /* \"#utility.yul\":6787:6788   */\n      dup1\n        /* \"#utility.yul\":6780:6792   */\n      revert\n        /* \"#utility.yul\":6804:6921   */\n    tag_71:\n        /* \"#utility.yul\":6913:6914   */\n      0x00\n        /* \"#utility.yul\":6910:6911   */\n      dup1\n        /* \"#utility.yul\":6903:6915   */\n      revert\n        /* \"#utility.yul\":6927:7029   */\n    tag_94:\n        /* \"#utility.yul\":6968:6974   */\n      0x00\n        /* \"#utility.yul\":7019:7021   */\n      0x1f\n        /* \"#utility.yul\":7015:7022   */\n      not\n        /* \"#utility.yul\":7010:7012   */\n      0x1f\n        /* \"#utility.yul\":7003:7008   */\n      dup4\n        /* \"#utility.yul\":6999:7013   */\n      add\n        /* \"#utility.yul\":6995:7023   */\n      and\n        /* \"#utility.yul\":6985:7023   */\n      swap1\n      pop\n        /* \"#utility.yul\":6927:7029   */\n      swap2\n      swap1\n      pop\n      jump\t// out\n\n    auxdata: 0xa2646970667358221220881562c896162207828a257518bd536181bfe3ecd7eb676a06c818364360057264736f6c63430008070033\n}\n",
				"bytecode": {
					"linkReferences": {},
					"object": "608060405234801561001057600080fd5b50610726806100206000396000f3fe608060405234801561001057600080fd5b50600436106100415760003560e01c80633bc86509146100465780635b6beeb914610062578063d9fb97f714610092575b600080fd5b610060600480360381019061005b91906103f9565b6100c2565b005b61007c600480360381019061007791906103b0565b610132565b60405161008991906104f2565b60405180910390f35b6100ac60048036038101906100a791906103b0565b6101e7565b6040516100b991906104f2565b60405180910390f35b806000836040516100d391906104db565b908152602001604051809103902090805190602001906100f492919061029d565b507fe20751acac1c1604f322f90c67a302e99b44a472645e625269c08832cded23408183604051610126929190610514565b60405180910390a15050565b60606000808360405161014591906104db565b9081526020016040518091039020805461015e9061060a565b80601f016020809104026020016040519081016040528092919081815260200182805461018a9061060a565b80156101d75780601f106101ac576101008083540402835291602001916101d7565b820191906000526020600020905b8154815290600101906020018083116101ba57829003601f168201915b5050505050905080915050919050565b600081805160208101820180518482526020830160208501208183528095505050505050600091509050805461021c9061060a565b80601f01602080910402602001604051908101604052809291908181526020018280546102489061060a565b80156102955780601f1061026a57610100808354040283529160200191610295565b820191906000526020600020905b81548152906001019060200180831161027857829003601f168201915b505050505081565b8280546102a99061060a565b90600052602060002090601f0160209004810192826102cb5760008555610312565b82601f106102e457805160ff1916838001178555610312565b82800160010185558215610312579182015b828111156103115782518255916020019190600101906102f6565b5b50905061031f9190610323565b5090565b5b8082111561033c576000816000905550600101610324565b5090565b600061035361034e84610570565b61054b565b90508281526020810184848401111561036f5761036e6106d0565b5b61037a8482856105c8565b509392505050565b600082601f830112610397576103966106cb565b5b81356103a7848260208601610340565b91505092915050565b6000602082840312156103c6576103c56106da565b5b600082013567ffffffffffffffff8111156103e4576103e36106d5565b5b6103f084828501610382565b91505092915050565b600080604083850312156104105761040f6106da565b5b600083013567ffffffffffffffff81111561042e5761042d6106d5565b5b61043a85828601610382565b925050602083013567ffffffffffffffff81111561045b5761045a6106d5565b5b61046785828601610382565b9150509250929050565b600061047c826105a1565b61048681856105ac565b93506104968185602086016105d7565b61049f816106df565b840191505092915050565b60006104b5826105a1565b6104bf81856105bd565b93506104cf8185602086016105d7565b80840191505092915050565b60006104e782846104aa565b915081905092915050565b6000602082019050818103600083015261050c8184610471565b905092915050565b6000604082019050818103600083015261052e8185610471565b905081810360208301526105428184610471565b90509392505050565b6000610555610566565b9050610561828261063c565b919050565b6000604051905090565b600067ffffffffffffffff82111561058b5761058a61069c565b5b610594826106df565b9050602081019050919050565b600081519050919050565b600082825260208201905092915050565b600081905092915050565b82818337600083830152505050565b60005b838110156105f55780820151818401526020810190506105da565b83811115610604576000848401525b50505050565b6000600282049050600182168061062257607f821691505b602082108114156106365761063561066d565b5b50919050565b610645826106df565b810181811067ffffffffffffffff821117156106645761066361069c565b5b80604052505050565b7f4e487b7100000000000000000000000000000000000000000000000000000000600052602260045260246000fd5b7f4e487b7100000000000000000000000000000000000000000000000000000000600052604160045260246000fd5b600080fd5b600080fd5b600080fd5b600080fd5b6000601f19601f830116905091905056fea2646970667358221220881562c896162207828a257518bd536181bfe3ecd7eb676a06c818364360057264736f6c63430008070033",
					"opcodes": "PUSH1 0x80 PUSH1 0x40 MSTORE CALLVALUE DUP1 ISZERO PUSH2 0x10 JUMPI PUSH1 0x0 DUP1 REVERT JUMPDEST POP PUSH2 0x726 DUP1 PUSH2 0x20 PUSH1 0x0 CODECOPY PUSH1 0x0 RETURN INVALID PUSH1 0x80 PUSH1 0x40 MSTORE CALLVALUE DUP1 ISZERO PUSH2 0x10 JUMPI PUSH1 0x0 DUP1 REVERT JUMPDEST POP PUSH1 0x4 CALLDATASIZE LT PUSH2 0x41 JUMPI PUSH1 0x0 CALLDATALOAD PUSH1 0xE0 SHR DUP1 PUSH4 0x3BC86509 EQ PUSH2 0x46 JUMPI DUP1 PUSH4 0x5B6BEEB9 EQ PUSH2 0x62 JUMPI DUP1 PUSH4 0xD9FB97F7 EQ PUSH2 0x92 JUMPI JUMPDEST PUSH1 0x0 DUP1 REVERT JUMPDEST PUSH2 0x60 PUSH1 0x4 DUP1 CALLDATASIZE SUB DUP2 ADD SWAP1 PUSH2 0x5B SWAP2 SWAP1 PUSH2 0x3F9 JUMP JUMPDEST PUSH2 0xC2 JUMP JUMPDEST STOP JUMPDEST PUSH2 0x7C PUSH1 0x4 DUP1 CALLDATASIZE SUB DUP2 ADD SWAP1 PUSH2 0x77 SWAP2 SWAP1 PUSH2 0x3B0 JUMP JUMPDEST PUSH2 0x132 JUMP JUMPDEST PUSH1 0x40 MLOAD PUSH2 0x89 SWAP2 SWAP1 PUSH2 0x4F2 JUMP JUMPDEST PUSH1 0x40 MLOAD DUP1 SWAP2 SUB SWAP1 RETURN JUMPDEST PUSH2 0xAC PUSH1 0x4 DUP1 CALLDATASIZE SUB DUP2 ADD SWAP1 PUSH2 0xA7 SWAP2 SWAP1 PUSH2 0x3B0 JUMP JUMPDEST PUSH2 0x1E7 JUMP JUMPDEST PUSH1 0x40 MLOAD PUSH2 0xB9 SWAP2 SWAP1 PUSH2 0x4F2 JUMP JUMPDEST PUSH1 0x40 MLOAD DUP1 SWAP2 SUB SWAP1 RETURN JUMPDEST DUP1 PUSH1 0x0 DUP4 PUSH1 0x40 MLOAD PUSH2 0xD3 SWAP2 SWAP1 PUSH2 0x4DB JUMP JUMPDEST SWAP1 DUP2 MSTORE PUSH1 0x20 ADD PUSH1 0x40 MLOAD DUP1 SWAP2 SUB SWAP1 KECCAK256 SWAP1 DUP1 MLOAD SWAP1 PUSH1 0x20 ADD SWAP1 PUSH2 0xF4 SWAP3 SWAP2 SWAP1 PUSH2 0x29D JUMP JUMPDEST POP PUSH32 0xE20751ACAC1C1604F322F90C67A302E99B44A472645E625269C08832CDED2340 DUP2 DUP4 PUSH1 0x40 MLOAD PUSH2 0x126 SWAP3 SWAP2 SWAP1 PUSH2 0x514 JUMP JUMPDEST PUSH1 0x40 MLOAD DUP1 SWAP2 SUB SWAP1 LOG1 POP POP JUMP JUMPDEST PUSH1 0x60 PUSH1 0x0 DUP1 DUP4 PUSH1 0x40 MLOAD PUSH2 0x145 SWAP2 SWAP1 PUSH2 0x4DB JUMP JUMPDEST SWAP1 DUP2 MSTORE PUSH1 0x20 ADD PUSH1 0x40 MLOAD DUP1 SWAP2 SUB SWAP1 KECCAK256 DUP1 SLOAD PUSH2 0x15E SWAP1 PUSH2 0x60A JUMP JUMPDEST DUP1 PUSH1 0x1F ADD PUSH1 0x20 DUP1 SWAP2 DIV MUL PUSH1 0x20 ADD PUSH1 0x40 MLOAD SWAP1 DUP2 ADD PUSH1 0x40 MSTORE DUP1 SWAP3 SWAP2 SWAP1 DUP2 DUP2 MSTORE PUSH1 0x20 ADD DUP3 DUP1 SLOAD PUSH2 0x18A SWAP1 PUSH2 0x60A JUMP JUMPDEST DUP1 ISZERO PUSH2 0x1D7 JUMPI DUP1 PUSH1 0x1F LT PUSH2 0x1AC JUMPI PUSH2 0x100 DUP1 DUP4 SLOAD DIV MUL DUP4 MSTORE SWAP2 PUSH1 0x20 ADD SWAP2 PUSH2 0x1D7 JUMP JUMPDEST DUP3 ADD SWAP2 SWAP1 PUSH1 0x0 MSTORE PUSH1 0x20 PUSH1 0x0 KECCAK256 SWAP1 JUMPDEST DUP2 SLOAD DUP2 MSTORE SWAP1 PUSH1 0x1 ADD SWAP1 PUSH1 0x20 ADD DUP1 DUP4 GT PUSH2 0x1BA JUMPI DUP3 SWAP1 SUB PUSH1 0x1F AND DUP3 ADD SWAP2 JUMPDEST POP POP POP POP POP SWAP1 POP DUP1 SWAP2 POP POP SWAP2 SWAP1 POP JUMP JUMPDEST PUSH1 0x0 DUP2 DUP1 MLOAD PUSH1 0x20 DUP2 ADD DUP3 ADD DUP1 MLOAD DUP5 DUP3 MSTORE PUSH1 0x20 DUP4 ADD PUSH1 0x20 DUP6 ADD KECCAK256 DUP2 DUP4 MSTORE DUP1 SWAP6 POP POP POP POP POP POP PUSH1 0x0 SWAP2 POP SWAP1 POP DUP1 SLOAD PUSH2 0x21C SWAP1 PUSH2 0x60A JUMP JUMPDEST DUP1 PUSH1 0x1F ADD PUSH1 0x20 DUP1 SWAP2 DIV MUL PUSH1 0x20 ADD PUSH1 0x40 MLOAD SWAP1 DUP2 ADD PUSH1 0x40 MSTORE DUP1 SWAP3 SWAP2 SWAP1 DUP2 DUP2 MSTORE PUSH1 0x20 ADD DUP3 DUP1 SLOAD PUSH2 0x248 SWAP1 PUSH2 0x60A JUMP JUMPDEST DUP1 ISZERO PUSH2 0x295 JUMPI DUP1 PUSH1 0x1F LT PUSH2 0x26A JUMPI PUSH2 0x100 DUP1 DUP4 SLOAD DIV MUL DUP4 MSTORE SWAP2 PUSH1 0x20 ADD SWAP2 PUSH2 0x295 JUMP JUMPDEST DUP3 ADD SWAP2 SWAP1 PUSH1 0x0 MSTORE PUSH1 0x20 PUSH1 0x0 KECCAK256 SWAP1 JUMPDEST DUP2 SLOAD DUP2 MSTORE SWAP1 PUSH1 0x1 ADD SWAP1 PUSH1 0x20 ADD DUP1 DUP4 GT PUSH2 0x278 JUMPI DUP3 SWAP1 SUB PUSH1 0x1F AND DUP3 ADD SWAP2 JUMPDEST POP POP POP POP POP DUP2 JUMP JUMPDEST DUP3 DUP1 SLOAD PUSH2 0x2A9 SWAP1 PUSH2 0x60A JUMP JUMPDEST SWAP1 PUSH1 0x0 MSTORE PUSH1 0x20 PUSH1 0x0 KECCAK256 SWAP1 PUSH1 0x1F ADD PUSH1 0x20 SWAP1 DIV DUP2 ADD SWAP3 DUP3 PUSH2 0x2CB JUMPI PUSH1 0x0 DUP6 SSTORE PUSH2 0x312 JUMP JUMPDEST DUP3 PUSH1 0x1F LT PUSH2 0x2E4 JUMPI DUP1 MLOAD PUSH1 0xFF NOT AND DUP4 DUP1 ADD OR DUP6 SSTORE PUSH2 0x312 JUMP JUMPDEST DUP3 DUP1 ADD PUSH1 0x1 ADD DUP6 SSTORE DUP3 ISZERO PUSH2 0x312 JUMPI SWAP2 DUP3 ADD JUMPDEST DUP3 DUP2 GT ISZERO PUSH2 0x311 JUMPI DUP3 MLOAD DUP3 SSTORE SWAP2 PUSH1 0x20 ADD SWAP2 SWAP1 PUSH1 0x1 ADD SWAP1 PUSH2 0x2F6 JUMP JUMPDEST JUMPDEST POP SWAP1 POP PUSH2 0x31F SWAP2 SWAP1 PUSH2 0x323 JUMP JUMPDEST POP SWAP1 JUMP JUMPDEST JUMPDEST DUP1 DUP3 GT ISZERO PUSH2 0x33C JUMPI PUSH1 0x0 DUP2 PUSH1 0x0 SWAP1 SSTORE POP PUSH1 0x1 ADD PUSH2 0x324 JUMP JUMPDEST POP SWAP1 JUMP JUMPDEST PUSH1 0x0 PUSH2 0x353 PUSH2 0x34E DUP5 PUSH2 0x570 JUMP JUMPDEST PUSH2 0x54B JUMP JUMPDEST SWAP1 POP DUP3 DUP2 MSTORE PUSH1 0x20 DUP2 ADD DUP5 DUP5 DUP5 ADD GT ISZERO PUSH2 0x36F JUMPI PUSH2 0x36E PUSH2 0x6D0 JUMP JUMPDEST JUMPDEST PUSH2 0x37A DUP5 DUP3 DUP6 PUSH2 0x5C8 JUMP JUMPDEST POP SWAP4 SWAP3 POP POP POP JUMP JUMPDEST PUSH1 0x0 DUP3 PUSH1 0x1F DUP4 ADD SLT PUSH2 0x397 JUMPI PUSH2 0x396 PUSH2 0x6CB JUMP JUMPDEST JUMPDEST DUP2 CALLDATALOAD PUSH2 0x3A7 DUP5 DUP3 PUSH1 0x20 DUP7 ADD PUSH2 0x340 JUMP JUMPDEST SWAP2 POP POP SWAP3 SWAP2 POP POP JUMP JUMPDEST PUSH1 0x0 PUSH1 0x20 DUP3 DUP5 SUB SLT ISZERO PUSH2 0x3C6 JUMPI PUSH2 0x3C5 PUSH2 0x6DA JUMP JUMPDEST JUMPDEST PUSH1 0x0 DUP3 ADD CALLDATALOAD PUSH8 0xFFFFFFFFFFFFFFFF DUP2 GT ISZERO PUSH2 0x3E4 JUMPI PUSH2 0x3E3 PUSH2 0x6D5 JUMP JUMPDEST JUMPDEST PUSH2 0x3F0 DUP5 DUP3 DUP6 ADD PUSH2 0x382 JUMP JUMPDEST SWAP2 POP POP SWAP3 SWAP2 POP POP JUMP JUMPDEST PUSH1 0x0 DUP1 PUSH1 0x40 DUP4 DUP6 SUB SLT ISZERO PUSH2 0x410 JUMPI PUSH2 0x40F PUSH2 0x6DA JUMP JUMPDEST JUMPDEST PUSH1 0x0 DUP4 ADD CALLDATALOAD PUSH8 0xFFFFFFFFFFFFFFFF DUP2 GT ISZERO PUSH2 0x42E JUMPI PUSH2 0x42D PUSH2 0x6D5 JUMP JUMPDEST JUMPDEST PUSH2 0x43A DUP6 DUP3 DUP7 ADD PUSH2 0x382 JUMP JUMPDEST SWAP3 POP POP PUSH1 0x20 DUP4 ADD CALLDATALOAD PUSH8 0xFFFFFFFFFFFFFFFF DUP2 GT ISZERO PUSH2 0x45B JUMPI PUSH2 0x45A PUSH2 0x6D5 JUMP JUMPDEST JUMPDEST PUSH2 0x467 DUP6 DUP3 DUP7 ADD PUSH2 0x382 JUMP JUMPDEST SWAP2 POP POP SWAP3 POP SWAP3 SWAP1 POP JUMP JUMPDEST PUSH1 0x0 PUSH2 0x47C DUP3 PUSH2 0x5A1 JUMP JUMPDEST PUSH2 0x486 DUP2 DUP6 PUSH2 0x5AC JUMP JUMPDEST SWAP4 POP PUSH2 0x496 DUP2 DUP6 PUSH1 0x20 DUP7 ADD PUSH2 0x5D7 JUMP JUMPDEST PUSH2 0x49F DUP2 PUSH2 0x6DF JUMP JUMPDEST DUP5 ADD SWAP2 POP POP SWAP3 SWAP2 POP POP JUMP JUMPDEST PUSH1 0x0 PUSH2 0x4B5 DUP3 PUSH2 0x5A1 JUMP JUMPDEST PUSH2 0x4BF DUP2 DUP6 PUSH2 0x5BD JUMP JUMPDEST SWAP4 POP PUSH2 0x4CF DUP2 DUP6 PUSH1 0x20 DUP7 ADD PUSH2 0x5D7 JUMP JUMPDEST DUP1 DUP5 ADD SWAP2 POP POP SWAP3 SWAP2 POP POP JUMP JUMPDEST PUSH1 0x0 PUSH2 0x4E7 DUP3 DUP5 PUSH2 0x4AA JUMP JUMPDEST SWAP2 POP DUP2 SWAP1 POP SWAP3 SWAP2 POP POP JUMP JUMPDEST PUSH1 0x0 PUSH1 0x20 DUP3 ADD SWAP1 POP DUP2 DUP2 SUB PUSH1 0x0 DUP4 ADD MSTORE PUSH2 0x50C DUP2 DUP5 PUSH2 0x471 JUMP JUMPDEST SWAP1 POP SWAP3 SWAP2 POP POP JUMP JUMPDEST PUSH1 0x0 PUSH1 0x40 DUP3 ADD SWAP1 POP DUP2 DUP2 SUB PUSH1 0x0 DUP4 ADD MSTORE PUSH2 0x52E DUP2 DUP6 PUSH2 0x471 JUMP JUMPDEST SWAP1 POP DUP2 DUP2 SUB PUSH1 0x20 DUP4 ADD MSTORE PUSH2 0x542 DUP2 DUP5 PUSH2 0x471 JUMP JUMPDEST SWAP1 POP SWAP4 SWAP3 POP POP POP JUMP JUMPDEST PUSH1 0x0 PUSH2 0x555 PUSH2 0x566 JUMP JUMPDEST SWAP1 POP PUSH2 0x561 DUP3 DUP3 PUSH2 0x63C JUMP JUMPDEST SWAP2 SWAP1 POP JUMP JUMPDEST PUSH1 0x0 PUSH1 0x40 MLOAD SWAP1 POP SWAP1 JUMP JUMPDEST PUSH1 0x0 PUSH8 0xFFFFFFFFFFFFFFFF DUP3 GT ISZERO PUSH2 0x58B JUMPI PUSH2 0x58A PUSH2 0x69C JUMP JUMPDEST JUMPDEST PUSH2 0x594 DUP3 PUSH2 0x6DF JUMP JUMPDEST SWAP1 POP PUSH1 0x20 DUP2 ADD SWAP1 POP SWAP2 SWAP1 POP JUMP JUMPDEST PUSH1 0x0 DUP2 MLOAD SWAP1 POP SWAP2 SWAP1 POP JUMP JUMPDEST PUSH1 0x0 DUP3 DUP3 MSTORE PUSH1 0x20 DUP3 ADD SWAP1 POP SWAP3 SWAP2 POP POP JUMP JUMPDEST PUSH1 0x0 DUP2 SWAP1 POP SWAP3 SWAP2 POP POP JUMP JUMPDEST DUP3 DUP2 DUP4 CALLDATACOPY PUSH1 0x0 DUP4 DUP4 ADD MSTORE POP POP POP JUMP JUMPDEST PUSH1 0x0 JUMPDEST DUP4 DUP2 LT ISZERO PUSH2 0x5F5 JUMPI DUP1 DUP3 ADD MLOAD DUP2 DUP5 ADD MSTORE PUSH1 0x20 DUP2 ADD SWAP1 POP PUSH2 0x5DA JUMP JUMPDEST DUP4 DUP2 GT ISZERO PUSH2 0x604 JUMPI PUSH1 0x0 DUP5 DUP5 ADD MSTORE JUMPDEST POP POP POP POP JUMP JUMPDEST PUSH1 0x0 PUSH1 0x2 DUP3 DIV SWAP1 POP PUSH1 0x1 DUP3 AND DUP1 PUSH2 0x622 JUMPI PUSH1 0x7F DUP3 AND SWAP2 POP JUMPDEST PUSH1 0x20 DUP3 LT DUP2 EQ ISZERO PUSH2 0x636 JUMPI PUSH2 0x635 PUSH2 0x66D JUMP JUMPDEST JUMPDEST POP SWAP2 SWAP1 POP JUMP JUMPDEST PUSH2 0x645 DUP3 PUSH2 0x6DF JUMP JUMPDEST DUP2 ADD DUP2 DUP2 LT PUSH8 0xFFFFFFFFFFFFFFFF DUP3 GT OR ISZERO PUSH2 0x664 JUMPI PUSH2 0x663 PUSH2 0x69C JUMP JUMPDEST JUMPDEST DUP1 PUSH1 0x40 MSTORE POP POP POP JUMP JUMPDEST PUSH32 0x4E487B7100000000000000000000000000000000000000000000000000000000 PUSH1 0x0 MSTORE PUSH1 0x22 PUSH1 0x4 MSTORE PUSH1 0x24 PUSH1 0x0 REVERT JUMPDEST PUSH32 0x4E487B7100000000000000000000000000000000000000000000000000000000 PUSH1 0x0 MSTORE PUSH1 0x41 PUSH1 0x4 MSTORE PUSH1 0x24 PUSH1 0x0 REVERT JUMPDEST PUSH1 0x0 DUP1 REVERT JUMPDEST PUSH1 0x0 DUP1 REVERT JUMPDEST PUSH1 0x0 DUP1 REVERT JUMPDEST PUSH1 0x0 DUP1 REVERT JUMPDEST PUSH1 0x0 PUSH1 0x1F NOT PUSH1 0x1F DUP4 ADD AND SWAP1 POP SWAP2 SWAP1 POP JUMP INVALID LOG2 PUSH5 0x6970667358 0x22 SLT KECCAK256 DUP9 ISZERO PUSH3 0xC89616 0x22 SMOD DUP3 DUP11 0x25 PUSH22 0x18BD536181BFE3ECD7EB676A06C81836436005726473 PUSH16 0x6C634300080700330000000000000000 "
				},
				"gasEstimates": {
					"creation": {
						"codeDepositCost": "366000",
						"executionCost": "405",
						"totalCost": "366405"
					},
					"external": {
						"getHash(string)": "infinite",
						"ipfsInbox(string)": "infinite",
						"sendIPFS(string,string)": "infinite"
					}
				},
				"methodIdentifiers": {
					"getHash(string)": "5b6beeb9",
					"ipfsInbox(string)": "d9fb97f7",
					"sendIPFS(string,string)": "3bc86509"
				}
			},
			"storageLayout": {
				"storage": [
					{
						"astId": 5,
						"contract": "contracts/test.sol:Inbox",
						"label": "ipfsInbox",
						"offset": 0,
						"slot": "0",
						"type": "t_mapping(t_string_memory_ptr,t_string_storage)"
					}
				],
				"types": {
					"t_mapping(t_string_memory_ptr,t_string_storage)": {
						"encoding": "mapping",
						"key": "t_string_memory_ptr",
						"label": "mapping(string => string)",
						"numberOfBytes": "32",
						"value": "t_string_storage"
					},
					"t_string_memory_ptr": {
						"encoding": "bytes",
						"label": "string",
						"numberOfBytes": "32"
					},
					"t_string_storage": {
						"encoding": "bytes",
						"label": "string",
						"numberOfBytes": "32"
					}
				}
			},
			"userdoc": {
				"kind": "user",
				"methods": {},
				"version": 1
			}
		}
	}
}