{
	"contracts/test.sol": {
		"Inbox": {
			"abi": [
				{
					"anonymous": false,
					"inputs": [
						{
							"indexed": false,
							"internalType": "string",
							"name": "response",
							"type": "string"
						}
					],
					"name": "inboxResponse",
					"type": "event"
				},
				{
					"anonymous": false,
					"inputs": [
						{
							"indexed": false,
							"internalType": "string",
							"name": "_ipfsHash",
							"type": "string"
						},
						{
							"indexed": false,
							"internalType": "string",
							"name": "_address",
							"type": "string"
						}
					],
					"name": "ipfsSent",
					"type": "event"
				},
				{
					"inputs": [
						{
							"internalType": "string",
							"name": "_address",
							"type": "string"
						}
					],
					"name": "getHash",
					"outputs": [
						{
							"internalType": "string",
							"name": "",
							"type": "string"
						}
					],
					"stateMutability": "view",
					"type": "function"
				},
				{
					"inputs": [],
					"name": "getZeroNumber",
					"outputs": [
						{
							"internalType": "int256",
							"name": "",
							"type": "int256"
						}
					],
					"stateMutability": "view",
					"type": "function"
				},
				{
					"inputs": [
						{
							"internalType": "string",
							"name": "",
							"type": "string"
						}
					],
					"name": "ipfsInbox",
					"outputs": [
						{
							"internalType": "string",
							"name": "",
							"type": "string"
						}
					],
					"stateMutability": "view",
					"type": "function"
				},
				{
					"inputs": [
						{
							"internalType": "string",
							"name": "_address",
							"type": "string"
						},
						{
							"internalType": "string",
							"name": "_ipfsHash",
							"type": "string"
						}
					],
					"name": "sendIPFS",
					"outputs": [],
					"stateMutability": "nonpayable",
					"type": "function"
				}
			],
			"devdoc": {
				"kind": "dev",
				"methods": {},
				"version": 1
			},
			"evm": {
				"assembly": "    /* \"contracts/test.sol\":62:1039  contract Inbox {\r... */\n  mstore(0x40, 0x80)\n    /* \"contracts/test.sol\":144:147  123 */\n  0x7b\n    /* \"contracts/test.sol\":133:147  int zero = 123 */\n  0x01\n  sstore\n    /* \"contracts/test.sol\":62:1039  contract Inbox {\r... */\n  callvalue\n  dup1\n  iszero\n  tag_1\n  jumpi\n  0x00\n  dup1\n  revert\ntag_1:\n  pop\n  dataSize(sub_0)\n  dup1\n  dataOffset(sub_0)\n  0x00\n  codecopy\n  0x00\n  return\nstop\n\nsub_0: assembly {\n        /* \"contracts/test.sol\":62:1039  contract Inbox {\r... */\n      mstore(0x40, 0x80)\n      callvalue\n      dup1\n      iszero\n      tag_1\n      jumpi\n      0x00\n      dup1\n      revert\n    tag_1:\n      pop\n      jumpi(tag_2, lt(calldatasize, 0x04))\n      shr(0xe0, calldataload(0x00))\n      dup1\n      0x3bc86509\n      eq\n      tag_3\n      jumpi\n      dup1\n      0x5b6beeb9\n      eq\n      tag_4\n      jumpi\n      dup1\n      0xa5dbcba3\n      eq\n      tag_5\n      jumpi\n      dup1\n      0xd9fb97f7\n      eq\n      tag_6\n      jumpi\n    tag_2:\n      0x00\n      dup1\n      revert\n        /* \"contracts/test.sol\":540:709  function sendIPFS(string memory _address, string memory _ipfsHash) public {\r... */\n    tag_3:\n      tag_7\n      0x04\n      dup1\n      calldatasize\n      sub\n      dup2\n      add\n      swap1\n      tag_8\n      swap2\n      swap1\n      tag_9\n      jump\t// in\n    tag_8:\n      tag_10\n      jump\t// in\n    tag_7:\n      stop\n        /* \"contracts/test.sol\":737:947  function getHash(string memory _address) public view returns (string memory) {\r... */\n    tag_4:\n      tag_11\n      0x04\n      dup1\n      calldatasize\n      sub\n      dup2\n      add\n      swap1\n      tag_12\n      swap2\n      swap1\n      tag_13\n      jump\t// in\n    tag_12:\n      tag_14\n      jump\t// in\n    tag_11:\n      mload(0x40)\n      tag_15\n      swap2\n      swap1\n      tag_16\n      jump\t// in\n    tag_15:\n      mload(0x40)\n      dup1\n      swap2\n      sub\n      swap1\n      return\n        /* \"contracts/test.sol\":955:1036  function getZeroNumber() public view returns (int) {\r... */\n    tag_5:\n      tag_17\n      tag_18\n      jump\t// in\n    tag_17:\n      mload(0x40)\n      tag_19\n      swap2\n      swap1\n      tag_20\n      jump\t// in\n    tag_19:\n      mload(0x40)\n      dup1\n      swap2\n      sub\n      swap1\n      return\n        /* \"contracts/test.sol\":84:126  mapping(string => string) public ipfsInbox */\n    tag_6:\n      tag_21\n      0x04\n      dup1\n      calldatasize\n      sub\n      dup2\n      add\n      swap1\n      tag_22\n      swap2\n      swap1\n      tag_13\n      jump\t// in\n    tag_22:\n      tag_23\n      jump\t// in\n    tag_21:\n      mload(0x40)\n      tag_24\n      swap2\n      swap1\n      tag_16\n      jump\t// in\n    tag_24:\n      mload(0x40)\n      dup1\n      swap2\n      sub\n      swap1\n      return\n        /* \"contracts/test.sol\":540:709  function sendIPFS(string memory _address, string memory _ipfsHash) public {\r... */\n    tag_10:\n        /* \"contracts/test.sol\":647:656  _ipfsHash */\n      dup1\n        /* \"contracts/test.sol\":625:634  ipfsInbox */\n      0x00\n        /* \"contracts/test.sol\":635:643  _address */\n      dup4\n        /* \"contracts/test.sol\":625:644  ipfsInbox[_address] */\n      mload(0x40)\n      tag_26\n      swap2\n      swap1\n      tag_27\n      jump\t// in\n    tag_26:\n      swap1\n      dup2\n      mstore\n      0x20\n      add\n      mload(0x40)\n      dup1\n      swap2\n      sub\n      swap1\n      keccak256\n        /* \"contracts/test.sol\":625:656  ipfsInbox[_address] = _ipfsHash */\n      swap1\n      dup1\n      mload\n      swap1\n      0x20\n      add\n      swap1\n      tag_28\n      swap3\n      swap2\n      swap1\n      tag_29\n      jump\t// in\n    tag_28:\n      pop\n        /* \"contracts/test.sol\":672:701  ipfsSent(_ipfsHash, _address) */\n      0xe20751acac1c1604f322f90c67a302e99b44a472645e625269c08832cded2340\n        /* \"contracts/test.sol\":681:690  _ipfsHash */\n      dup2\n        /* \"contracts/test.sol\":692:700  _address */\n      dup4\n        /* \"contracts/test.sol\":672:701  ipfsSent(_ipfsHash, _address) */\n      mload(0x40)\n      tag_30\n      swap3\n      swap2\n      swap1\n      tag_31\n      jump\t// in\n    tag_30:\n      mload(0x40)\n      dup1\n      swap2\n      sub\n      swap1\n      log1\n        /* \"contracts/test.sol\":540:709  function sendIPFS(string memory _address, string memory _ipfsHash) public {\r... */\n      pop\n      pop\n      jump\t// out\n        /* \"contracts/test.sol\":737:947  function getHash(string memory _address) public view returns (string memory) {\r... */\n    tag_14:\n        /* \"contracts/test.sol\":799:812  string memory */\n      0x60\n        /* \"contracts/test.sol\":825:848  string memory ipfs_hash */\n      0x00\n        /* \"contracts/test.sol\":851:860  ipfsInbox */\n      dup1\n        /* \"contracts/test.sol\":861:869  _address */\n      dup4\n        /* \"contracts/test.sol\":851:870  ipfsInbox[_address] */\n      mload(0x40)\n      tag_33\n      swap2\n      swap1\n      tag_27\n      jump\t// in\n    tag_33:\n      swap1\n      dup2\n      mstore\n      0x20\n      add\n      mload(0x40)\n      dup1\n      swap2\n      sub\n      swap1\n      keccak256\n        /* \"contracts/test.sol\":825:870  string memory ipfs_hash = ipfsInbox[_address] */\n      dup1\n      sload\n      tag_34\n      swap1\n      tag_35\n      jump\t// in\n    tag_34:\n      dup1\n      0x1f\n      add\n      0x20\n      dup1\n      swap2\n      div\n      mul\n      0x20\n      add\n      mload(0x40)\n      swap1\n      dup2\n      add\n      0x40\n      mstore\n      dup1\n      swap3\n      swap2\n      swap1\n      dup2\n      dup2\n      mstore\n      0x20\n      add\n      dup3\n      dup1\n      sload\n      tag_36\n      swap1\n      tag_35\n      jump\t// in\n    tag_36:\n      dup1\n      iszero\n      tag_37\n      jumpi\n      dup1\n      0x1f\n      lt\n      tag_38\n      jumpi\n      0x0100\n      dup1\n      dup4\n      sload\n      div\n      mul\n      dup4\n      mstore\n      swap2\n      0x20\n      add\n      swap2\n      jump(tag_37)\n    tag_38:\n      dup3\n      add\n      swap2\n      swap1\n      0x00\n      mstore\n      keccak256(0x00, 0x20)\n      swap1\n    tag_39:\n      dup2\n      sload\n      dup2\n      mstore\n      swap1\n      0x01\n      add\n      swap1\n      0x20\n      add\n      dup1\n      dup4\n      gt\n      tag_39\n      jumpi\n      dup3\n      swap1\n      sub\n      0x1f\n      and\n      dup3\n      add\n      swap2\n    tag_37:\n      pop\n      pop\n      pop\n      pop\n      pop\n      swap1\n      pop\n        /* \"contracts/test.sol\":930:939  ipfs_hash */\n      dup1\n        /* \"contracts/test.sol\":923:939  return ipfs_hash */\n      swap2\n      pop\n      pop\n        /* \"contracts/test.sol\":737:947  function getHash(string memory _address) public view returns (string memory) {\r... */\n      swap2\n      swap1\n      pop\n      jump\t// out\n        /* \"contracts/test.sol\":955:1036  function getZeroNumber() public view returns (int) {\r... */\n    tag_18:\n        /* \"contracts/test.sol\":1001:1004  int */\n      0x00\n        /* \"contracts/test.sol\":1024:1028  zero */\n      sload(0x01)\n        /* \"contracts/test.sol\":1017:1028  return zero */\n      swap1\n      pop\n        /* \"contracts/test.sol\":955:1036  function getZeroNumber() public view returns (int) {\r... */\n      swap1\n      jump\t// out\n        /* \"contracts/test.sol\":84:126  mapping(string => string) public ipfsInbox */\n    tag_23:\n      0x00\n      dup2\n      dup1\n      mload\n      0x20\n      dup2\n      add\n      dup3\n      add\n      dup1\n      mload\n      dup5\n      dup3\n      mstore\n      0x20\n      dup4\n      add\n      0x20\n      dup6\n      add\n      keccak256\n      dup2\n      dup4\n      mstore\n      dup1\n      swap6\n      pop\n      pop\n      pop\n      pop\n      pop\n      pop\n      0x00\n      swap2\n      pop\n      swap1\n      pop\n      dup1\n      sload\n      tag_41\n      swap1\n      tag_35\n      jump\t// in\n    tag_41:\n      dup1\n      0x1f\n      add\n      0x20\n      dup1\n      swap2\n      div\n      mul\n      0x20\n      add\n      mload(0x40)\n      swap1\n      dup2\n      add\n      0x40\n      mstore\n      dup1\n      swap3\n      swap2\n      swap1\n      dup2\n      dup2\n      mstore\n      0x20\n      add\n      dup3\n      dup1\n      sload\n      tag_42\n      swap1\n      tag_35\n      jump\t// in\n    tag_42:\n      dup1\n      iszero\n      tag_43\n      jumpi\n      dup1\n      0x1f\n      lt\n      tag_44\n      jumpi\n      0x0100\n      dup1\n      dup4\n      sload\n      div\n      mul\n      dup4\n      mstore\n      swap2\n      0x20\n      add\n      swap2\n      jump(tag_43)\n    tag_44:\n      dup3\n      add\n      swap2\n      swap1\n      0x00\n      mstore\n      keccak256(0x00, 0x20)\n      swap1\n    tag_45:\n      dup2\n      sload\n      dup2\n      mstore\n      swap1\n      0x01\n      add\n      swap1\n      0x20\n      add\n      dup1\n      dup4\n      gt\n      tag_45\n      jumpi\n      dup3\n      swap1\n      sub\n      0x1f\n      and\n      dup3\n      add\n      swap2\n    tag_43:\n      pop\n      pop\n      pop\n      pop\n      pop\n      dup2\n      jump\t// out\n    tag_29:\n      dup3\n      dup1\n      sload\n      tag_46\n      swap1\n      tag_35\n      jump\t// in\n    tag_46:\n      swap1\n      0x00\n      mstore\n      keccak256(0x00, 0x20)\n      swap1\n      0x1f\n      add\n      0x20\n      swap1\n      div\n      dup2\n      add\n      swap3\n      dup3\n      tag_48\n      jumpi\n      0x00\n      dup6\n      sstore\n      jump(tag_47)\n    tag_48:\n      dup3\n      0x1f\n      lt\n      tag_49\n      jumpi\n      dup1\n      mload\n      not(0xff)\n      and\n      dup4\n      dup1\n      add\n      or\n      dup6\n      sstore\n      jump(tag_47)\n    tag_49:\n      dup3\n      dup1\n      add\n      0x01\n      add\n      dup6\n      sstore\n      dup3\n      iszero\n      tag_47\n      jumpi\n      swap2\n      dup3\n      add\n    tag_50:\n      dup3\n      dup2\n      gt\n      iszero\n      tag_51\n      jumpi\n      dup3\n      mload\n      dup3\n      sstore\n      swap2\n      0x20\n      add\n      swap2\n      swap1\n      0x01\n      add\n      swap1\n      jump(tag_50)\n    tag_51:\n    tag_47:\n      pop\n      swap1\n      pop\n      tag_52\n      swap2\n      swap1\n      tag_53\n      jump\t// in\n    tag_52:\n      pop\n      swap1\n      jump\t// out\n    tag_53:\n    tag_54:\n      dup1\n      dup3\n      gt\n      iszero\n      tag_55\n      jumpi\n      0x00\n      dup2\n      0x00\n      swap1\n      sstore\n      pop\n      0x01\n      add\n      jump(tag_54)\n    tag_55:\n      pop\n      swap1\n      jump\t// out\n        /* \"#utility.yul\":7:351   */\n    tag_57:\n      0x00\n        /* \"#utility.yul\":110:175   */\n      tag_59\n        /* \"#utility.yul\":125:174   */\n      tag_60\n        /* \"#utility.yul\":167:173   */\n      dup5\n        /* \"#utility.yul\":125:174   */\n      tag_61\n      jump\t// in\n    tag_60:\n        /* \"#utility.yul\":110:175   */\n      tag_62\n      jump\t// in\n    tag_59:\n        /* \"#utility.yul\":101:175   */\n      swap1\n      pop\n        /* \"#utility.yul\":198:204   */\n      dup3\n        /* \"#utility.yul\":191:196   */\n      dup2\n        /* \"#utility.yul\":184:205   */\n      mstore\n        /* \"#utility.yul\":236:240   */\n      0x20\n        /* \"#utility.yul\":229:234   */\n      dup2\n        /* \"#utility.yul\":225:241   */\n      add\n        /* \"#utility.yul\":274:277   */\n      dup5\n        /* \"#utility.yul\":265:271   */\n      dup5\n        /* \"#utility.yul\":260:263   */\n      dup5\n        /* \"#utility.yul\":256:272   */\n      add\n        /* \"#utility.yul\":253:278   */\n      gt\n        /* \"#utility.yul\":250:252   */\n      iszero\n      tag_63\n      jumpi\n        /* \"#utility.yul\":291:292   */\n      0x00\n        /* \"#utility.yul\":288:289   */\n      dup1\n        /* \"#utility.yul\":281:293   */\n      revert\n        /* \"#utility.yul\":250:252   */\n    tag_63:\n        /* \"#utility.yul\":304:345   */\n      tag_64\n        /* \"#utility.yul\":338:344   */\n      dup5\n        /* \"#utility.yul\":333:336   */\n      dup3\n        /* \"#utility.yul\":328:331   */\n      dup6\n        /* \"#utility.yul\":304:345   */\n      tag_65\n      jump\t// in\n    tag_64:\n        /* \"#utility.yul\":91:351   */\n      pop\n      swap4\n      swap3\n      pop\n      pop\n      pop\n      jump\t// out\n        /* \"#utility.yul\":371:644   */\n    tag_66:\n      0x00\n        /* \"#utility.yul\":476:479   */\n      dup3\n        /* \"#utility.yul\":469:473   */\n      0x1f\n        /* \"#utility.yul\":461:467   */\n      dup4\n        /* \"#utility.yul\":457:474   */\n      add\n        /* \"#utility.yul\":453:480   */\n      slt\n        /* \"#utility.yul\":443:445   */\n      tag_68\n      jumpi\n        /* \"#utility.yul\":494:495   */\n      0x00\n        /* \"#utility.yul\":491:492   */\n      dup1\n        /* \"#utility.yul\":484:496   */\n      revert\n        /* \"#utility.yul\":443:445   */\n    tag_68:\n        /* \"#utility.yul\":534:540   */\n      dup2\n        /* \"#utility.yul\":521:541   */\n      calldataload\n        /* \"#utility.yul\":559:638   */\n      tag_69\n        /* \"#utility.yul\":634:637   */\n      dup5\n        /* \"#utility.yul\":626:632   */\n      dup3\n        /* \"#utility.yul\":619:623   */\n      0x20\n        /* \"#utility.yul\":611:617   */\n      dup7\n        /* \"#utility.yul\":607:624   */\n      add\n        /* \"#utility.yul\":559:638   */\n      tag_57\n      jump\t// in\n    tag_69:\n        /* \"#utility.yul\":550:638   */\n      swap2\n      pop\n        /* \"#utility.yul\":433:644   */\n      pop\n      swap3\n      swap2\n      pop\n      pop\n      jump\t// out\n        /* \"#utility.yul\":650:1025   */\n    tag_13:\n      0x00\n        /* \"#utility.yul\":768:770   */\n      0x20\n        /* \"#utility.yul\":756:765   */\n      dup3\n        /* \"#utility.yul\":747:754   */\n      dup5\n        /* \"#utility.yul\":743:766   */\n      sub\n        /* \"#utility.yul\":739:771   */\n      slt\n        /* \"#utility.yul\":736:738   */\n      iszero\n      tag_71\n      jumpi\n        /* \"#utility.yul\":784:785   */\n      0x00\n        /* \"#utility.yul\":781:782   */\n      dup1\n        /* \"#utility.yul\":774:786   */\n      revert\n        /* \"#utility.yul\":736:738   */\n    tag_71:\n        /* \"#utility.yul\":855:856   */\n      0x00\n        /* \"#utility.yul\":844:853   */\n      dup3\n        /* \"#utility.yul\":840:857   */\n      add\n        /* \"#utility.yul\":827:858   */\n      calldataload\n        /* \"#utility.yul\":885:903   */\n      0xffffffffffffffff\n        /* \"#utility.yul\":877:883   */\n      dup2\n        /* \"#utility.yul\":874:904   */\n      gt\n        /* \"#utility.yul\":871:873   */\n      iszero\n      tag_72\n      jumpi\n        /* \"#utility.yul\":917:918   */\n      0x00\n        /* \"#utility.yul\":914:915   */\n      dup1\n        /* \"#utility.yul\":907:919   */\n      revert\n        /* \"#utility.yul\":871:873   */\n    tag_72:\n        /* \"#utility.yul\":945:1008   */\n      tag_73\n        /* \"#utility.yul\":1000:1007   */\n      dup5\n        /* \"#utility.yul\":991:997   */\n      dup3\n        /* \"#utility.yul\":980:989   */\n      dup6\n        /* \"#utility.yul\":976:998   */\n      add\n        /* \"#utility.yul\":945:1008   */\n      tag_66\n      jump\t// in\n    tag_73:\n        /* \"#utility.yul\":935:1008   */\n      swap2\n      pop\n        /* \"#utility.yul\":798:1018   */\n      pop\n        /* \"#utility.yul\":726:1025   */\n      swap3\n      swap2\n      pop\n      pop\n      jump\t// out\n        /* \"#utility.yul\":1031:1664   */\n    tag_9:\n      0x00\n      dup1\n        /* \"#utility.yul\":1176:1178   */\n      0x40\n        /* \"#utility.yul\":1164:1173   */\n      dup4\n        /* \"#utility.yul\":1155:1162   */\n      dup6\n        /* \"#utility.yul\":1151:1174   */\n      sub\n        /* \"#utility.yul\":1147:1179   */\n      slt\n        /* \"#utility.yul\":1144:1146   */\n      iszero\n      tag_75\n      jumpi\n        /* \"#utility.yul\":1192:1193   */\n      0x00\n        /* \"#utility.yul\":1189:1190   */\n      dup1\n        /* \"#utility.yul\":1182:1194   */\n      revert\n        /* \"#utility.yul\":1144:1146   */\n    tag_75:\n        /* \"#utility.yul\":1263:1264   */\n      0x00\n        /* \"#utility.yul\":1252:1261   */\n      dup4\n        /* \"#utility.yul\":1248:1265   */\n      add\n        /* \"#utility.yul\":1235:1266   */\n      calldataload\n        /* \"#utility.yul\":1293:1311   */\n      0xffffffffffffffff\n        /* \"#utility.yul\":1285:1291   */\n      dup2\n        /* \"#utility.yul\":1282:1312   */\n      gt\n        /* \"#utility.yul\":1279:1281   */\n      iszero\n      tag_76\n      jumpi\n        /* \"#utility.yul\":1325:1326   */\n      0x00\n        /* \"#utility.yul\":1322:1323   */\n      dup1\n        /* \"#utility.yul\":1315:1327   */\n      revert\n        /* \"#utility.yul\":1279:1281   */\n    tag_76:\n        /* \"#utility.yul\":1353:1416   */\n      tag_77\n        /* \"#utility.yul\":1408:1415   */\n      dup6\n        /* \"#utility.yul\":1399:1405   */\n      dup3\n        /* \"#utility.yul\":1388:1397   */\n      dup7\n        /* \"#utility.yul\":1384:1406   */\n      add\n        /* \"#utility.yul\":1353:1416   */\n      tag_66\n      jump\t// in\n    tag_77:\n        /* \"#utility.yul\":1343:1416   */\n      swap3\n      pop\n        /* \"#utility.yul\":1206:1426   */\n      pop\n        /* \"#utility.yul\":1493:1495   */\n      0x20\n        /* \"#utility.yul\":1482:1491   */\n      dup4\n        /* \"#utility.yul\":1478:1496   */\n      add\n        /* \"#utility.yul\":1465:1497   */\n      calldataload\n        /* \"#utility.yul\":1524:1542   */\n      0xffffffffffffffff\n        /* \"#utility.yul\":1516:1522   */\n      dup2\n        /* \"#utility.yul\":1513:1543   */\n      gt\n        /* \"#utility.yul\":1510:1512   */\n      iszero\n      tag_78\n      jumpi\n        /* \"#utility.yul\":1556:1557   */\n      0x00\n        /* \"#utility.yul\":1553:1554   */\n      dup1\n        /* \"#utility.yul\":1546:1558   */\n      revert\n        /* \"#utility.yul\":1510:1512   */\n    tag_78:\n        /* \"#utility.yul\":1584:1647   */\n      tag_79\n        /* \"#utility.yul\":1639:1646   */\n      dup6\n        /* \"#utility.yul\":1630:1636   */\n      dup3\n        /* \"#utility.yul\":1619:1628   */\n      dup7\n        /* \"#utility.yul\":1615:1637   */\n      add\n        /* \"#utility.yul\":1584:1647   */\n      tag_66\n      jump\t// in\n    tag_79:\n        /* \"#utility.yul\":1574:1647   */\n      swap2\n      pop\n        /* \"#utility.yul\":1436:1657   */\n      pop\n        /* \"#utility.yul\":1134:1664   */\n      swap3\n      pop\n      swap3\n      swap1\n      pop\n      jump\t// out\n        /* \"#utility.yul\":1670:1785   */\n    tag_80:\n        /* \"#utility.yul\":1755:1778   */\n      tag_82\n        /* \"#utility.yul\":1772:1777   */\n      dup2\n        /* \"#utility.yul\":1755:1778   */\n      tag_83\n      jump\t// in\n    tag_82:\n        /* \"#utility.yul\":1750:1753   */\n      dup3\n        /* \"#utility.yul\":1743:1779   */\n      mstore\n        /* \"#utility.yul\":1733:1785   */\n      pop\n      pop\n      jump\t// out\n        /* \"#utility.yul\":1791:2155   */\n    tag_84:\n      0x00\n        /* \"#utility.yul\":1907:1946   */\n      tag_86\n        /* \"#utility.yul\":1940:1945   */\n      dup3\n        /* \"#utility.yul\":1907:1946   */\n      tag_87\n      jump\t// in\n    tag_86:\n        /* \"#utility.yul\":1962:2033   */\n      tag_88\n        /* \"#utility.yul\":2026:2032   */\n      dup2\n        /* \"#utility.yul\":2021:2024   */\n      dup6\n        /* \"#utility.yul\":1962:2033   */\n      tag_89\n      jump\t// in\n    tag_88:\n        /* \"#utility.yul\":1955:2033   */\n      swap4\n      pop\n        /* \"#utility.yul\":2042:2094   */\n      tag_90\n        /* \"#utility.yul\":2087:2093   */\n      dup2\n        /* \"#utility.yul\":2082:2085   */\n      dup6\n        /* \"#utility.yul\":2075:2079   */\n      0x20\n        /* \"#utility.yul\":2068:2073   */\n      dup7\n        /* \"#utility.yul\":2064:2080   */\n      add\n        /* \"#utility.yul\":2042:2094   */\n      tag_91\n      jump\t// in\n    tag_90:\n        /* \"#utility.yul\":2119:2148   */\n      tag_92\n        /* \"#utility.yul\":2141:2147   */\n      dup2\n        /* \"#utility.yul\":2119:2148   */\n      tag_93\n      jump\t// in\n    tag_92:\n        /* \"#utility.yul\":2114:2117   */\n      dup5\n        /* \"#utility.yul\":2110:2149   */\n      add\n        /* \"#utility.yul\":2103:2149   */\n      swap2\n      pop\n        /* \"#utility.yul\":1883:2155   */\n      pop\n      swap3\n      swap2\n      pop\n      pop\n      jump\t// out\n        /* \"#utility.yul\":2161:2538   */\n    tag_94:\n      0x00\n        /* \"#utility.yul\":2295:2334   */\n      tag_96\n        /* \"#utility.yul\":2328:2333   */\n      dup3\n        /* \"#utility.yul\":2295:2334   */\n      tag_87\n      jump\t// in\n    tag_96:\n        /* \"#utility.yul\":2350:2439   */\n      tag_97\n        /* \"#utility.yul\":2432:2438   */\n      dup2\n        /* \"#utility.yul\":2427:2430   */\n      dup6\n        /* \"#utility.yul\":2350:2439   */\n      tag_98\n      jump\t// in\n    tag_97:\n        /* \"#utility.yul\":2343:2439   */\n      swap4\n      pop\n        /* \"#utility.yul\":2448:2500   */\n      tag_99\n        /* \"#utility.yul\":2493:2499   */\n      dup2\n        /* \"#utility.yul\":2488:2491   */\n      dup6\n        /* \"#utility.yul\":2481:2485   */\n      0x20\n        /* \"#utility.yul\":2474:2479   */\n      dup7\n        /* \"#utility.yul\":2470:2486   */\n      add\n        /* \"#utility.yul\":2448:2500   */\n      tag_91\n      jump\t// in\n    tag_99:\n        /* \"#utility.yul\":2525:2531   */\n      dup1\n        /* \"#utility.yul\":2520:2523   */\n      dup5\n        /* \"#utility.yul\":2516:2532   */\n      add\n        /* \"#utility.yul\":2509:2532   */\n      swap2\n      pop\n        /* \"#utility.yul\":2271:2538   */\n      pop\n      swap3\n      swap2\n      pop\n      pop\n      jump\t// out\n        /* \"#utility.yul\":2544:2819   */\n    tag_27:\n      0x00\n        /* \"#utility.yul\":2698:2793   */\n      tag_101\n        /* \"#utility.yul\":2789:2792   */\n      dup3\n        /* \"#utility.yul\":2780:2786   */\n      dup5\n        /* \"#utility.yul\":2698:2793   */\n      tag_94\n      jump\t// in\n    tag_101:\n        /* \"#utility.yul\":2691:2793   */\n      swap2\n      pop\n        /* \"#utility.yul\":2810:2813   */\n      dup2\n        /* \"#utility.yul\":2803:2813   */\n      swap1\n      pop\n        /* \"#utility.yul\":2680:2819   */\n      swap3\n      swap2\n      pop\n      pop\n      jump\t// out\n        /* \"#utility.yul\":2825:3043   */\n    tag_20:\n      0x00\n        /* \"#utility.yul\":2954:2956   */\n      0x20\n        /* \"#utility.yul\":2943:2952   */\n      dup3\n        /* \"#utility.yul\":2939:2957   */\n      add\n        /* \"#utility.yul\":2931:2957   */\n      swap1\n      pop\n        /* \"#utility.yul\":2967:3036   */\n      tag_103\n        /* \"#utility.yul\":3033:3034   */\n      0x00\n        /* \"#utility.yul\":3022:3031   */\n      dup4\n        /* \"#utility.yul\":3018:3035   */\n      add\n        /* \"#utility.yul\":3009:3015   */\n      dup5\n        /* \"#utility.yul\":2967:3036   */\n      tag_80\n      jump\t// in\n    tag_103:\n        /* \"#utility.yul\":2921:3043   */\n      swap3\n      swap2\n      pop\n      pop\n      jump\t// out\n        /* \"#utility.yul\":3049:3362   */\n    tag_16:\n      0x00\n        /* \"#utility.yul\":3200:3202   */\n      0x20\n        /* \"#utility.yul\":3189:3198   */\n      dup3\n        /* \"#utility.yul\":3185:3203   */\n      add\n        /* \"#utility.yul\":3177:3203   */\n      swap1\n      pop\n        /* \"#utility.yul\":3249:3258   */\n      dup2\n        /* \"#utility.yul\":3243:3247   */\n      dup2\n        /* \"#utility.yul\":3239:3259   */\n      sub\n        /* \"#utility.yul\":3235:3236   */\n      0x00\n        /* \"#utility.yul\":3224:3233   */\n      dup4\n        /* \"#utility.yul\":3220:3237   */\n      add\n        /* \"#utility.yul\":3213:3260   */\n      mstore\n        /* \"#utility.yul\":3277:3355   */\n      tag_105\n        /* \"#utility.yul\":3350:3354   */\n      dup2\n        /* \"#utility.yul\":3341:3347   */\n      dup5\n        /* \"#utility.yul\":3277:3355   */\n      tag_84\n      jump\t// in\n    tag_105:\n        /* \"#utility.yul\":3269:3355   */\n      swap1\n      pop\n        /* \"#utility.yul\":3167:3362   */\n      swap3\n      swap2\n      pop\n      pop\n      jump\t// out\n        /* \"#utility.yul\":3368:3882   */\n    tag_31:\n      0x00\n        /* \"#utility.yul\":3567:3569   */\n      0x40\n        /* \"#utility.yul\":3556:3565   */\n      dup3\n        /* \"#utility.yul\":3552:3570   */\n      add\n        /* \"#utility.yul\":3544:3570   */\n      swap1\n      pop\n        /* \"#utility.yul\":3616:3625   */\n      dup2\n        /* \"#utility.yul\":3610:3614   */\n      dup2\n        /* \"#utility.yul\":3606:3626   */\n      sub\n        /* \"#utility.yul\":3602:3603   */\n      0x00\n        /* \"#utility.yul\":3591:3600   */\n      dup4\n        /* \"#utility.yul\":3587:3604   */\n      add\n        /* \"#utility.yul\":3580:3627   */\n      mstore\n        /* \"#utility.yul\":3644:3722   */\n      tag_107\n        /* \"#utility.yul\":3717:3721   */\n      dup2\n        /* \"#utility.yul\":3708:3714   */\n      dup6\n        /* \"#utility.yul\":3644:3722   */\n      tag_84\n      jump\t// in\n    tag_107:\n        /* \"#utility.yul\":3636:3722   */\n      swap1\n      pop\n        /* \"#utility.yul\":3769:3778   */\n      dup2\n        /* \"#utility.yul\":3763:3767   */\n      dup2\n        /* \"#utility.yul\":3759:3779   */\n      sub\n        /* \"#utility.yul\":3754:3756   */\n      0x20\n        /* \"#utility.yul\":3743:3752   */\n      dup4\n        /* \"#utility.yul\":3739:3757   */\n      add\n        /* \"#utility.yul\":3732:3780   */\n      mstore\n        /* \"#utility.yul\":3797:3875   */\n      tag_108\n        /* \"#utility.yul\":3870:3874   */\n      dup2\n        /* \"#utility.yul\":3861:3867   */\n      dup5\n        /* \"#utility.yul\":3797:3875   */\n      tag_84\n      jump\t// in\n    tag_108:\n        /* \"#utility.yul\":3789:3875   */\n      swap1\n      pop\n        /* \"#utility.yul\":3534:3882   */\n      swap4\n      swap3\n      pop\n      pop\n      pop\n      jump\t// out\n        /* \"#utility.yul\":3888:4171   */\n    tag_62:\n      0x00\n        /* \"#utility.yul\":3954:3956   */\n      0x40\n        /* \"#utility.yul\":3948:3957   */\n      mload\n        /* \"#utility.yul\":3938:3957   */\n      swap1\n      pop\n        /* \"#utility.yul\":3996:4000   */\n      dup2\n        /* \"#utility.yul\":3988:3994   */\n      dup2\n        /* \"#utility.yul\":3984:4001   */\n      add\n        /* \"#utility.yul\":4103:4109   */\n      dup2\n        /* \"#utility.yul\":4091:4101   */\n      dup2\n        /* \"#utility.yul\":4088:4110   */\n      lt\n        /* \"#utility.yul\":4067:4085   */\n      0xffffffffffffffff\n        /* \"#utility.yul\":4055:4065   */\n      dup3\n        /* \"#utility.yul\":4052:4086   */\n      gt\n        /* \"#utility.yul\":4049:4111   */\n      or\n        /* \"#utility.yul\":4046:4048   */\n      iszero\n      tag_110\n      jumpi\n        /* \"#utility.yul\":4114:4132   */\n      tag_111\n      tag_112\n      jump\t// in\n    tag_111:\n        /* \"#utility.yul\":4046:4048   */\n    tag_110:\n        /* \"#utility.yul\":4154:4164   */\n      dup1\n        /* \"#utility.yul\":4150:4152   */\n      0x40\n        /* \"#utility.yul\":4143:4165   */\n      mstore\n        /* \"#utility.yul\":3928:4171   */\n      pop\n      swap2\n      swap1\n      pop\n      jump\t// out\n        /* \"#utility.yul\":4177:4509   */\n    tag_61:\n      0x00\n        /* \"#utility.yul\":4329:4347   */\n      0xffffffffffffffff\n        /* \"#utility.yul\":4321:4327   */\n      dup3\n        /* \"#utility.yul\":4318:4348   */\n      gt\n        /* \"#utility.yul\":4315:4317   */\n      iszero\n      tag_114\n      jumpi\n        /* \"#utility.yul\":4351:4369   */\n      tag_115\n      tag_112\n      jump\t// in\n    tag_115:\n        /* \"#utility.yul\":4315:4317   */\n    tag_114:\n        /* \"#utility.yul\":4436:4440   */\n      0x1f\n        /* \"#utility.yul\":4432:4441   */\n      not\n        /* \"#utility.yul\":4425:4429   */\n      0x1f\n        /* \"#utility.yul\":4417:4423   */\n      dup4\n        /* \"#utility.yul\":4413:4430   */\n      add\n        /* \"#utility.yul\":4409:4442   */\n      and\n        /* \"#utility.yul\":4401:4442   */\n      swap1\n      pop\n        /* \"#utility.yul\":4497:4501   */\n      0x20\n        /* \"#utility.yul\":4491:4495   */\n      dup2\n        /* \"#utility.yul\":4487:4502   */\n      add\n        /* \"#utility.yul\":4479:4502   */\n      swap1\n      pop\n        /* \"#utility.yul\":4244:4509   */\n      swap2\n      swap1\n      pop\n      jump\t// out\n        /* \"#utility.yul\":4515:4614   */\n    tag_87:\n      0x00\n        /* \"#utility.yul\":4601:4606   */\n      dup2\n        /* \"#utility.yul\":4595:4607   */\n      mload\n        /* \"#utility.yul\":4585:4607   */\n      swap1\n      pop\n        /* \"#utility.yul\":4574:4614   */\n      swap2\n      swap1\n      pop\n      jump\t// out\n        /* \"#utility.yul\":4620:4789   */\n    tag_89:\n      0x00\n        /* \"#utility.yul\":4738:4744   */\n      dup3\n        /* \"#utility.yul\":4733:4736   */\n      dup3\n        /* \"#utility.yul\":4726:4745   */\n      mstore\n        /* \"#utility.yul\":4778:4782   */\n      0x20\n        /* \"#utility.yul\":4773:4776   */\n      dup3\n        /* \"#utility.yul\":4769:4783   */\n      add\n        /* \"#utility.yul\":4754:4783   */\n      swap1\n      pop\n        /* \"#utility.yul\":4716:4789   */\n      swap3\n      swap2\n      pop\n      pop\n      jump\t// out\n        /* \"#utility.yul\":4795:4943   */\n    tag_98:\n      0x00\n        /* \"#utility.yul\":4934:4937   */\n      dup2\n        /* \"#utility.yul\":4919:4937   */\n      swap1\n      pop\n        /* \"#utility.yul\":4909:4943   */\n      swap3\n      swap2\n      pop\n      pop\n      jump\t// out\n        /* \"#utility.yul\":4949:5025   */\n    tag_83:\n      0x00\n        /* \"#utility.yul\":5014:5019   */\n      dup2\n        /* \"#utility.yul\":5003:5019   */\n      swap1\n      pop\n        /* \"#utility.yul\":4993:5025   */\n      swap2\n      swap1\n      pop\n      jump\t// out\n        /* \"#utility.yul\":5031:5185   */\n    tag_65:\n        /* \"#utility.yul\":5115:5121   */\n      dup3\n        /* \"#utility.yul\":5110:5113   */\n      dup2\n        /* \"#utility.yul\":5105:5108   */\n      dup4\n        /* \"#utility.yul\":5092:5122   */\n      calldatacopy\n        /* \"#utility.yul\":5177:5178   */\n      0x00\n        /* \"#utility.yul\":5168:5174   */\n      dup4\n        /* \"#utility.yul\":5163:5166   */\n      dup4\n        /* \"#utility.yul\":5159:5175   */\n      add\n        /* \"#utility.yul\":5152:5179   */\n      mstore\n        /* \"#utility.yul\":5082:5185   */\n      pop\n      pop\n      pop\n      jump\t// out\n        /* \"#utility.yul\":5191:5498   */\n    tag_91:\n        /* \"#utility.yul\":5259:5260   */\n      0x00\n        /* \"#utility.yul\":5269:5382   */\n    tag_122:\n        /* \"#utility.yul\":5283:5289   */\n      dup4\n        /* \"#utility.yul\":5280:5281   */\n      dup2\n        /* \"#utility.yul\":5277:5290   */\n      lt\n        /* \"#utility.yul\":5269:5382   */\n      iszero\n      tag_124\n      jumpi\n        /* \"#utility.yul\":5368:5369   */\n      dup1\n        /* \"#utility.yul\":5363:5366   */\n      dup3\n        /* \"#utility.yul\":5359:5370   */\n      add\n        /* \"#utility.yul\":5353:5371   */\n      mload\n        /* \"#utility.yul\":5349:5350   */\n      dup2\n        /* \"#utility.yul\":5344:5347   */\n      dup5\n        /* \"#utility.yul\":5340:5351   */\n      add\n        /* \"#utility.yul\":5333:5372   */\n      mstore\n        /* \"#utility.yul\":5305:5307   */\n      0x20\n        /* \"#utility.yul\":5302:5303   */\n      dup2\n        /* \"#utility.yul\":5298:5308   */\n      add\n        /* \"#utility.yul\":5293:5308   */\n      swap1\n      pop\n        /* \"#utility.yul\":5269:5382   */\n      jump(tag_122)\n    tag_124:\n        /* \"#utility.yul\":5400:5406   */\n      dup4\n        /* \"#utility.yul\":5397:5398   */\n      dup2\n        /* \"#utility.yul\":5394:5407   */\n      gt\n        /* \"#utility.yul\":5391:5393   */\n      iszero\n      tag_125\n      jumpi\n        /* \"#utility.yul\":5480:5481   */\n      0x00\n        /* \"#utility.yul\":5471:5477   */\n      dup5\n        /* \"#utility.yul\":5466:5469   */\n      dup5\n        /* \"#utility.yul\":5462:5478   */\n      add\n        /* \"#utility.yul\":5455:5482   */\n      mstore\n        /* \"#utility.yul\":5391:5393   */\n    tag_125:\n        /* \"#utility.yul\":5240:5498   */\n      pop\n      pop\n      pop\n      pop\n      jump\t// out\n        /* \"#utility.yul\":5504:5824   */\n    tag_35:\n      0x00\n        /* \"#utility.yul\":5585:5586   */\n      0x02\n        /* \"#utility.yul\":5579:5583   */\n      dup3\n        /* \"#utility.yul\":5575:5587   */\n      div\n        /* \"#utility.yul\":5565:5587   */\n      swap1\n      pop\n        /* \"#utility.yul\":5632:5633   */\n      0x01\n        /* \"#utility.yul\":5626:5630   */\n      dup3\n        /* \"#utility.yul\":5622:5634   */\n      and\n        /* \"#utility.yul\":5653:5671   */\n      dup1\n        /* \"#utility.yul\":5643:5645   */\n      tag_127\n      jumpi\n        /* \"#utility.yul\":5709:5713   */\n      0x7f\n        /* \"#utility.yul\":5701:5707   */\n      dup3\n        /* \"#utility.yul\":5697:5714   */\n      and\n        /* \"#utility.yul\":5687:5714   */\n      swap2\n      pop\n        /* \"#utility.yul\":5643:5645   */\n    tag_127:\n        /* \"#utility.yul\":5771:5773   */\n      0x20\n        /* \"#utility.yul\":5763:5769   */\n      dup3\n        /* \"#utility.yul\":5760:5774   */\n      lt\n        /* \"#utility.yul\":5740:5758   */\n      dup2\n        /* \"#utility.yul\":5737:5775   */\n      eq\n        /* \"#utility.yul\":5734:5736   */\n      iszero\n      tag_128\n      jumpi\n        /* \"#utility.yul\":5790:5808   */\n      tag_129\n      tag_130\n      jump\t// in\n    tag_129:\n        /* \"#utility.yul\":5734:5736   */\n    tag_128:\n        /* \"#utility.yul\":5555:5824   */\n      pop\n      swap2\n      swap1\n      pop\n      jump\t// out\n        /* \"#utility.yul\":5830:6010   */\n    tag_130:\n        /* \"#utility.yul\":5878:5955   */\n      0x4e487b7100000000000000000000000000000000000000000000000000000000\n        /* \"#utility.yul\":5875:5876   */\n      0x00\n        /* \"#utility.yul\":5868:5956   */\n      mstore\n        /* \"#utility.yul\":5975:5979   */\n      0x22\n        /* \"#utility.yul\":5972:5973   */\n      0x04\n        /* \"#utility.yul\":5965:5980   */\n      mstore\n        /* \"#utility.yul\":5999:6003   */\n      0x24\n        /* \"#utility.yul\":5996:5997   */\n      0x00\n        /* \"#utility.yul\":5989:6004   */\n      revert\n        /* \"#utility.yul\":6016:6196   */\n    tag_112:\n        /* \"#utility.yul\":6064:6141   */\n      0x4e487b7100000000000000000000000000000000000000000000000000000000\n        /* \"#utility.yul\":6061:6062   */\n      0x00\n        /* \"#utility.yul\":6054:6142   */\n      mstore\n        /* \"#utility.yul\":6161:6165   */\n      0x41\n        /* \"#utility.yul\":6158:6159   */\n      0x04\n        /* \"#utility.yul\":6151:6166   */\n      mstore\n        /* \"#utility.yul\":6185:6189   */\n      0x24\n        /* \"#utility.yul\":6182:6183   */\n      0x00\n        /* \"#utility.yul\":6175:6190   */\n      revert\n        /* \"#utility.yul\":6202:6304   */\n    tag_93:\n      0x00\n        /* \"#utility.yul\":6294:6296   */\n      0x1f\n        /* \"#utility.yul\":6290:6297   */\n      not\n        /* \"#utility.yul\":6285:6287   */\n      0x1f\n        /* \"#utility.yul\":6278:6283   */\n      dup4\n        /* \"#utility.yul\":6274:6288   */\n      add\n        /* \"#utility.yul\":6270:6298   */\n      and\n        /* \"#utility.yul\":6260:6298   */\n      swap1\n      pop\n        /* \"#utility.yul\":6250:6304   */\n      swap2\n      swap1\n      pop\n      jump\t// out\n\n    auxdata: 0xa264697066735822122040fd16ec5e947c4472bbee390447e623d40be8a0ffdeef8fede0837571bdf56064736f6c63430008000033\n}\n",
				"bytecode": {
					"linkReferences": {},
					"object": "6080604052607b60015534801561001557600080fd5b50610737806100256000396000f3fe608060405234801561001057600080fd5b506004361061004c5760003560e01c80633bc86509146100515780635b6beeb91461006d578063a5dbcba31461009d578063d9fb97f7146100bb575b600080fd5b61006b6004803603810190610066919061041c565b6100eb565b005b610087600480360381019061008291906103db565b61015b565b6040516100949190610533565b60405180910390f35b6100a5610210565b6040516100b29190610518565b60405180910390f35b6100d560048036038101906100d091906103db565b61021a565b6040516100e29190610533565b60405180910390f35b806000836040516100fc9190610501565b9081526020016040518091039020908051906020019061011d9291906102d0565b507fe20751acac1c1604f322f90c67a302e99b44a472645e625269c08832cded2340818360405161014f929190610555565b60405180910390a15050565b60606000808360405161016e9190610501565b9081526020016040518091039020805461018790610660565b80601f01602080910402602001604051908101604052809291908181526020018280546101b390610660565b80156102005780601f106101d557610100808354040283529160200191610200565b820191906000526020600020905b8154815290600101906020018083116101e357829003601f168201915b5050505050905080915050919050565b6000600154905090565b600081805160208101820180518482526020830160208501208183528095505050505050600091509050805461024f90610660565b80601f016020809104026020016040519081016040528092919081815260200182805461027b90610660565b80156102c85780601f1061029d576101008083540402835291602001916102c8565b820191906000526020600020905b8154815290600101906020018083116102ab57829003601f168201915b505050505081565b8280546102dc90610660565b90600052602060002090601f0160209004810192826102fe5760008555610345565b82601f1061031757805160ff1916838001178555610345565b82800160010185558215610345579182015b82811115610344578251825591602001919060010190610329565b5b5090506103529190610356565b5090565b5b8082111561036f576000816000905550600101610357565b5090565b6000610386610381846105bd565b61058c565b90508281526020810184848401111561039e57600080fd5b6103a984828561061e565b509392505050565b600082601f8301126103c257600080fd5b81356103d2848260208601610373565b91505092915050565b6000602082840312156103ed57600080fd5b600082013567ffffffffffffffff81111561040757600080fd5b610413848285016103b1565b91505092915050565b6000806040838503121561042f57600080fd5b600083013567ffffffffffffffff81111561044957600080fd5b610455858286016103b1565b925050602083013567ffffffffffffffff81111561047257600080fd5b61047e858286016103b1565b9150509250929050565b61049181610614565b82525050565b60006104a2826105ed565b6104ac81856105f8565b93506104bc81856020860161062d565b6104c5816106f0565b840191505092915050565b60006104db826105ed565b6104e58185610609565b93506104f581856020860161062d565b80840191505092915050565b600061050d82846104d0565b915081905092915050565b600060208201905061052d6000830184610488565b92915050565b6000602082019050818103600083015261054d8184610497565b905092915050565b6000604082019050818103600083015261056f8185610497565b905081810360208301526105838184610497565b90509392505050565b6000604051905081810181811067ffffffffffffffff821117156105b3576105b26106c1565b5b8060405250919050565b600067ffffffffffffffff8211156105d8576105d76106c1565b5b601f19601f8301169050602081019050919050565b600081519050919050565b600082825260208201905092915050565b600081905092915050565b6000819050919050565b82818337600083830152505050565b60005b8381101561064b578082015181840152602081019050610630565b8381111561065a576000848401525b50505050565b6000600282049050600182168061067857607f821691505b6020821081141561068c5761068b610692565b5b50919050565b7f4e487b7100000000000000000000000000000000000000000000000000000000600052602260045260246000fd5b7f4e487b7100000000000000000000000000000000000000000000000000000000600052604160045260246000fd5b6000601f19601f830116905091905056fea264697066735822122040fd16ec5e947c4472bbee390447e623d40be8a0ffdeef8fede0837571bdf56064736f6c63430008000033",
					"opcodes": "PUSH1 0x80 PUSH1 0x40 MSTORE PUSH1 0x7B PUSH1 0x1 SSTORE CALLVALUE DUP1 ISZERO PUSH2 0x15 JUMPI PUSH1 0x0 DUP1 REVERT JUMPDEST POP PUSH2 0x737 DUP1 PUSH2 0x25 PUSH1 0x0 CODECOPY PUSH1 0x0 RETURN INVALID PUSH1 0x80 PUSH1 0x40 MSTORE CALLVALUE DUP1 ISZERO PUSH2 0x10 JUMPI PUSH1 0x0 DUP1 REVERT JUMPDEST POP PUSH1 0x4 CALLDATASIZE LT PUSH2 0x4C JUMPI PUSH1 0x0 CALLDATALOAD PUSH1 0xE0 SHR DUP1 PUSH4 0x3BC86509 EQ PUSH2 0x51 JUMPI DUP1 PUSH4 0x5B6BEEB9 EQ PUSH2 0x6D JUMPI DUP1 PUSH4 0xA5DBCBA3 EQ PUSH2 0x9D JUMPI DUP1 PUSH4 0xD9FB97F7 EQ PUSH2 0xBB JUMPI JUMPDEST PUSH1 0x0 DUP1 REVERT JUMPDEST PUSH2 0x6B PUSH1 0x4 DUP1 CALLDATASIZE SUB DUP2 ADD SWAP1 PUSH2 0x66 SWAP2 SWAP1 PUSH2 0x41C JUMP JUMPDEST PUSH2 0xEB JUMP JUMPDEST STOP JUMPDEST PUSH2 0x87 PUSH1 0x4 DUP1 CALLDATASIZE SUB DUP2 ADD SWAP1 PUSH2 0x82 SWAP2 SWAP1 PUSH2 0x3DB JUMP JUMPDEST PUSH2 0x15B JUMP JUMPDEST PUSH1 0x40 MLOAD PUSH2 0x94 SWAP2 SWAP1 PUSH2 0x533 JUMP JUMPDEST PUSH1 0x40 MLOAD DUP1 SWAP2 SUB SWAP1 RETURN JUMPDEST PUSH2 0xA5 PUSH2 0x210 JUMP JUMPDEST PUSH1 0x40 MLOAD PUSH2 0xB2 SWAP2 SWAP1 PUSH2 0x518 JUMP JUMPDEST PUSH1 0x40 MLOAD DUP1 SWAP2 SUB SWAP1 RETURN JUMPDEST PUSH2 0xD5 PUSH1 0x4 DUP1 CALLDATASIZE SUB DUP2 ADD SWAP1 PUSH2 0xD0 SWAP2 SWAP1 PUSH2 0x3DB JUMP JUMPDEST PUSH2 0x21A JUMP JUMPDEST PUSH1 0x40 MLOAD PUSH2 0xE2 SWAP2 SWAP1 PUSH2 0x533 JUMP JUMPDEST PUSH1 0x40 MLOAD DUP1 SWAP2 SUB SWAP1 RETURN JUMPDEST DUP1 PUSH1 0x0 DUP4 PUSH1 0x40 MLOAD PUSH2 0xFC SWAP2 SWAP1 PUSH2 0x501 JUMP JUMPDEST SWAP1 DUP2 MSTORE PUSH1 0x20 ADD PUSH1 0x40 MLOAD DUP1 SWAP2 SUB SWAP1 KECCAK256 SWAP1 DUP1 MLOAD SWAP1 PUSH1 0x20 ADD SWAP1 PUSH2 0x11D SWAP3 SWAP2 SWAP1 PUSH2 0x2D0 JUMP JUMPDEST POP PUSH32 0xE20751ACAC1C1604F322F90C67A302E99B44A472645E625269C08832CDED2340 DUP2 DUP4 PUSH1 0x40 MLOAD PUSH2 0x14F SWAP3 SWAP2 SWAP1 PUSH2 0x555 JUMP JUMPDEST PUSH1 0x40 MLOAD DUP1 SWAP2 SUB SWAP1 LOG1 POP POP JUMP JUMPDEST PUSH1 0x60 PUSH1 0x0 DUP1 DUP4 PUSH1 0x40 MLOAD PUSH2 0x16E SWAP2 SWAP1 PUSH2 0x501 JUMP JUMPDEST SWAP1 DUP2 MSTORE PUSH1 0x20 ADD PUSH1 0x40 MLOAD DUP1 SWAP2 SUB SWAP1 KECCAK256 DUP1 SLOAD PUSH2 0x187 SWAP1 PUSH2 0x660 JUMP JUMPDEST DUP1 PUSH1 0x1F ADD PUSH1 0x20 DUP1 SWAP2 DIV MUL PUSH1 0x20 ADD PUSH1 0x40 MLOAD SWAP1 DUP2 ADD PUSH1 0x40 MSTORE DUP1 SWAP3 SWAP2 SWAP1 DUP2 DUP2 MSTORE PUSH1 0x20 ADD DUP3 DUP1 SLOAD PUSH2 0x1B3 SWAP1 PUSH2 0x660 JUMP JUMPDEST DUP1 ISZERO PUSH2 0x200 JUMPI DUP1 PUSH1 0x1F LT PUSH2 0x1D5 JUMPI PUSH2 0x100 DUP1 DUP4 SLOAD DIV MUL DUP4 MSTORE SWAP2 PUSH1 0x20 ADD SWAP2 PUSH2 0x200 JUMP JUMPDEST DUP3 ADD SWAP2 SWAP1 PUSH1 0x0 MSTORE PUSH1 0x20 PUSH1 0x0 KECCAK256 SWAP1 JUMPDEST DUP2 SLOAD DUP2 MSTORE SWAP1 PUSH1 0x1 ADD SWAP1 PUSH1 0x20 ADD DUP1 DUP4 GT PUSH2 0x1E3 JUMPI DUP3 SWAP1 SUB PUSH1 0x1F AND DUP3 ADD SWAP2 JUMPDEST POP POP POP POP POP SWAP1 POP DUP1 SWAP2 POP POP SWAP2 SWAP1 POP JUMP JUMPDEST PUSH1 0x0 PUSH1 0x1 SLOAD SWAP1 POP SWAP1 JUMP JUMPDEST PUSH1 0x0 DUP2 DUP1 MLOAD PUSH1 0x20 DUP2 ADD DUP3 ADD DUP1 MLOAD DUP5 DUP3 MSTORE PUSH1 0x20 DUP4 ADD PUSH1 0x20 DUP6 ADD KECCAK256 DUP2 DUP4 MSTORE DUP1 SWAP6 POP POP POP POP POP POP PUSH1 0x0 SWAP2 POP SWAP1 POP DUP1 SLOAD PUSH2 0x24F SWAP1 PUSH2 0x660 JUMP JUMPDEST DUP1 PUSH1 0x1F ADD PUSH1 0x20 DUP1 SWAP2 DIV MUL PUSH1 0x20 ADD PUSH1 0x40 MLOAD SWAP1 DUP2 ADD PUSH1 0x40 MSTORE DUP1 SWAP3 SWAP2 SWAP1 DUP2 DUP2 MSTORE PUSH1 0x20 ADD DUP3 DUP1 SLOAD PUSH2 0x27B SWAP1 PUSH2 0x660 JUMP JUMPDEST DUP1 ISZERO PUSH2 0x2C8 JUMPI DUP1 PUSH1 0x1F LT PUSH2 0x29D JUMPI PUSH2 0x100 DUP1 DUP4 SLOAD DIV MUL DUP4 MSTORE SWAP2 PUSH1 0x20 ADD SWAP2 PUSH2 0x2C8 JUMP JUMPDEST DUP3 ADD SWAP2 SWAP1 PUSH1 0x0 MSTORE PUSH1 0x20 PUSH1 0x0 KECCAK256 SWAP1 JUMPDEST DUP2 SLOAD DUP2 MSTORE SWAP1 PUSH1 0x1 ADD SWAP1 PUSH1 0x20 ADD DUP1 DUP4 GT PUSH2 0x2AB JUMPI DUP3 SWAP1 SUB PUSH1 0x1F AND DUP3 ADD SWAP2 JUMPDEST POP POP POP POP POP DUP2 JUMP JUMPDEST DUP3 DUP1 SLOAD PUSH2 0x2DC SWAP1 PUSH2 0x660 JUMP JUMPDEST SWAP1 PUSH1 0x0 MSTORE PUSH1 0x20 PUSH1 0x0 KECCAK256 SWAP1 PUSH1 0x1F ADD PUSH1 0x20 SWAP1 DIV DUP2 ADD SWAP3 DUP3 PUSH2 0x2FE JUMPI PUSH1 0x0 DUP6 SSTORE PUSH2 0x345 JUMP JUMPDEST DUP3 PUSH1 0x1F LT PUSH2 0x317 JUMPI DUP1 MLOAD PUSH1 0xFF NOT AND DUP4 DUP1 ADD OR DUP6 SSTORE PUSH2 0x345 JUMP JUMPDEST DUP3 DUP1 ADD PUSH1 0x1 ADD DUP6 SSTORE DUP3 ISZERO PUSH2 0x345 JUMPI SWAP2 DUP3 ADD JUMPDEST DUP3 DUP2 GT ISZERO PUSH2 0x344 JUMPI DUP3 MLOAD DUP3 SSTORE SWAP2 PUSH1 0x20 ADD SWAP2 SWAP1 PUSH1 0x1 ADD SWAP1 PUSH2 0x329 JUMP JUMPDEST JUMPDEST POP SWAP1 POP PUSH2 0x352 SWAP2 SWAP1 PUSH2 0x356 JUMP JUMPDEST POP SWAP1 JUMP JUMPDEST JUMPDEST DUP1 DUP3 GT ISZERO PUSH2 0x36F JUMPI PUSH1 0x0 DUP2 PUSH1 0x0 SWAP1 SSTORE POP PUSH1 0x1 ADD PUSH2 0x357 JUMP JUMPDEST POP SWAP1 JUMP JUMPDEST PUSH1 0x0 PUSH2 0x386 PUSH2 0x381 DUP5 PUSH2 0x5BD JUMP JUMPDEST PUSH2 0x58C JUMP JUMPDEST SWAP1 POP DUP3 DUP2 MSTORE PUSH1 0x20 DUP2 ADD DUP5 DUP5 DUP5 ADD GT ISZERO PUSH2 0x39E JUMPI PUSH1 0x0 DUP1 REVERT JUMPDEST PUSH2 0x3A9 DUP5 DUP3 DUP6 PUSH2 0x61E JUMP JUMPDEST POP SWAP4 SWAP3 POP POP POP JUMP JUMPDEST PUSH1 0x0 DUP3 PUSH1 0x1F DUP4 ADD SLT PUSH2 0x3C2 JUMPI PUSH1 0x0 DUP1 REVERT JUMPDEST DUP2 CALLDATALOAD PUSH2 0x3D2 DUP5 DUP3 PUSH1 0x20 DUP7 ADD PUSH2 0x373 JUMP JUMPDEST SWAP2 POP POP SWAP3 SWAP2 POP POP JUMP JUMPDEST PUSH1 0x0 PUSH1 0x20 DUP3 DUP5 SUB SLT ISZERO PUSH2 0x3ED JUMPI PUSH1 0x0 DUP1 REVERT JUMPDEST PUSH1 0x0 DUP3 ADD CALLDATALOAD PUSH8 0xFFFFFFFFFFFFFFFF DUP2 GT ISZERO PUSH2 0x407 JUMPI PUSH1 0x0 DUP1 REVERT JUMPDEST PUSH2 0x413 DUP5 DUP3 DUP6 ADD PUSH2 0x3B1 JUMP JUMPDEST SWAP2 POP POP SWAP3 SWAP2 POP POP JUMP JUMPDEST PUSH1 0x0 DUP1 PUSH1 0x40 DUP4 DUP6 SUB SLT ISZERO PUSH2 0x42F JUMPI PUSH1 0x0 DUP1 REVERT JUMPDEST PUSH1 0x0 DUP4 ADD CALLDATALOAD PUSH8 0xFFFFFFFFFFFFFFFF DUP2 GT ISZERO PUSH2 0x449 JUMPI PUSH1 0x0 DUP1 REVERT JUMPDEST PUSH2 0x455 DUP6 DUP3 DUP7 ADD PUSH2 0x3B1 JUMP JUMPDEST SWAP3 POP POP PUSH1 0x20 DUP4 ADD CALLDATALOAD PUSH8 0xFFFFFFFFFFFFFFFF DUP2 GT ISZERO PUSH2 0x472 JUMPI PUSH1 0x0 DUP1 REVERT JUMPDEST PUSH2 0x47E DUP6 DUP3 DUP7 ADD PUSH2 0x3B1 JUMP JUMPDEST SWAP2 POP POP SWAP3 POP SWAP3 SWAP1 POP JUMP JUMPDEST PUSH2 0x491 DUP2 PUSH2 0x614 JUMP JUMPDEST DUP3 MSTORE POP POP JUMP JUMPDEST PUSH1 0x0 PUSH2 0x4A2 DUP3 PUSH2 0x5ED JUMP JUMPDEST PUSH2 0x4AC DUP2 DUP6 PUSH2 0x5F8 JUMP JUMPDEST SWAP4 POP PUSH2 0x4BC DUP2 DUP6 PUSH1 0x20 DUP7 ADD PUSH2 0x62D JUMP JUMPDEST PUSH2 0x4C5 DUP2 PUSH2 0x6F0 JUMP JUMPDEST DUP5 ADD SWAP2 POP POP SWAP3 SWAP2 POP POP JUMP JUMPDEST PUSH1 0x0 PUSH2 0x4DB DUP3 PUSH2 0x5ED JUMP JUMPDEST PUSH2 0x4E5 DUP2 DUP6 PUSH2 0x609 JUMP JUMPDEST SWAP4 POP PUSH2 0x4F5 DUP2 DUP6 PUSH1 0x20 DUP7 ADD PUSH2 0x62D JUMP JUMPDEST DUP1 DUP5 ADD SWAP2 POP POP SWAP3 SWAP2 POP POP JUMP JUMPDEST PUSH1 0x0 PUSH2 0x50D DUP3 DUP5 PUSH2 0x4D0 JUMP JUMPDEST SWAP2 POP DUP2 SWAP1 POP SWAP3 SWAP2 POP POP JUMP JUMPDEST PUSH1 0x0 PUSH1 0x20 DUP3 ADD SWAP1 POP PUSH2 0x52D PUSH1 0x0 DUP4 ADD DUP5 PUSH2 0x488 JUMP JUMPDEST SWAP3 SWAP2 POP POP JUMP JUMPDEST PUSH1 0x0 PUSH1 0x20 DUP3 ADD SWAP1 POP DUP2 DUP2 SUB PUSH1 0x0 DUP4 ADD MSTORE PUSH2 0x54D DUP2 DUP5 PUSH2 0x497 JUMP JUMPDEST SWAP1 POP SWAP3 SWAP2 POP POP JUMP JUMPDEST PUSH1 0x0 PUSH1 0x40 DUP3 ADD SWAP1 POP DUP2 DUP2 SUB PUSH1 0x0 DUP4 ADD MSTORE PUSH2 0x56F DUP2 DUP6 PUSH2 0x497 JUMP JUMPDEST SWAP1 POP DUP2 DUP2 SUB PUSH1 0x20 DUP4 ADD MSTORE PUSH2 0x583 DUP2 DUP5 PUSH2 0x497 JUMP JUMPDEST SWAP1 POP SWAP4 SWAP3 POP POP POP JUMP JUMPDEST PUSH1 0x0 PUSH1 0x40 MLOAD SWAP1 POP DUP2 DUP2 ADD DUP2 DUP2 LT PUSH8 0xFFFFFFFFFFFFFFFF DUP3 GT OR ISZERO PUSH2 0x5B3 JUMPI PUSH2 0x5B2 PUSH2 0x6C1 JUMP JUMPDEST JUMPDEST DUP1 PUSH1 0x40 MSTORE POP SWAP2 SWAP1 POP JUMP JUMPDEST PUSH1 0x0 PUSH8 0xFFFFFFFFFFFFFFFF DUP3 GT ISZERO PUSH2 0x5D8 JUMPI PUSH2 0x5D7 PUSH2 0x6C1 JUMP JUMPDEST JUMPDEST PUSH1 0x1F NOT PUSH1 0x1F DUP4 ADD AND SWAP1 POP PUSH1 0x20 DUP2 ADD SWAP1 POP SWAP2 SWAP1 POP JUMP JUMPDEST PUSH1 0x0 DUP2 MLOAD SWAP1 POP SWAP2 SWAP1 POP JUMP JUMPDEST PUSH1 0x0 DUP3 DUP3 MSTORE PUSH1 0x20 DUP3 ADD SWAP1 POP SWAP3 SWAP2 POP POP JUMP JUMPDEST PUSH1 0x0 DUP2 SWAP1 POP SWAP3 SWAP2 POP POP JUMP JUMPDEST PUSH1 0x0 DUP2 SWAP1 POP SWAP2 SWAP1 POP JUMP JUMPDEST DUP3 DUP2 DUP4 CALLDATACOPY PUSH1 0x0 DUP4 DUP4 ADD MSTORE POP POP POP JUMP JUMPDEST PUSH1 0x0 JUMPDEST DUP4 DUP2 LT ISZERO PUSH2 0x64B JUMPI DUP1 DUP3 ADD MLOAD DUP2 DUP5 ADD MSTORE PUSH1 0x20 DUP2 ADD SWAP1 POP PUSH2 0x630 JUMP JUMPDEST DUP4 DUP2 GT ISZERO PUSH2 0x65A JUMPI PUSH1 0x0 DUP5 DUP5 ADD MSTORE JUMPDEST POP POP POP POP JUMP JUMPDEST PUSH1 0x0 PUSH1 0x2 DUP3 DIV SWAP1 POP PUSH1 0x1 DUP3 AND DUP1 PUSH2 0x678 JUMPI PUSH1 0x7F DUP3 AND SWAP2 POP JUMPDEST PUSH1 0x20 DUP3 LT DUP2 EQ ISZERO PUSH2 0x68C JUMPI PUSH2 0x68B PUSH2 0x692 JUMP JUMPDEST JUMPDEST POP SWAP2 SWAP1 POP JUMP JUMPDEST PUSH32 0x4E487B7100000000000000000000000000000000000000000000000000000000 PUSH1 0x0 MSTORE PUSH1 0x22 PUSH1 0x4 MSTORE PUSH1 0x24 PUSH1 0x0 REVERT JUMPDEST PUSH32 0x4E487B7100000000000000000000000000000000000000000000000000000000 PUSH1 0x0 MSTORE PUSH1 0x41 PUSH1 0x4 MSTORE PUSH1 0x24 PUSH1 0x0 REVERT JUMPDEST PUSH1 0x0 PUSH1 0x1F NOT PUSH1 0x1F DUP4 ADD AND SWAP1 POP SWAP2 SWAP1 POP JUMP INVALID LOG2 PUSH5 0x6970667358 0x22 SLT KECCAK256 BLOCKHASH REVERT AND 0xEC 0x5E SWAP5 PUSH29 0x4472BBEE390447E623D40BE8A0FFDEEF8FEDE0837571BDF56064736F6C PUSH4 0x43000800 STOP CALLER "
				},
				"gasEstimates": {
					"creation": {
						"codeDepositCost": "369400",
						"executionCost": "20411",
						"totalCost": "389811"
					},
					"external": {
						"getHash(string)": "infinite",
						"getZeroNumber()": "1159",
						"ipfsInbox(string)": "infinite",
						"sendIPFS(string,string)": "infinite"
					}
				},
				"methodIdentifiers": {
					"getHash(string)": "5b6beeb9",
					"getZeroNumber()": "a5dbcba3",
					"ipfsInbox(string)": "d9fb97f7",
					"sendIPFS(string,string)": "3bc86509"
				}
			},
			"storageLayout": {
				"storage": [
					{
						"astId": 5,
						"contract": "contracts/test.sol:Inbox",
						"label": "ipfsInbox",
						"offset": 0,
						"slot": "0",
						"type": "t_mapping(t_string_memory_ptr,t_string_storage)"
					},
					{
						"astId": 8,
						"contract": "contracts/test.sol:Inbox",
						"label": "zero",
						"offset": 0,
						"slot": "1",
						"type": "t_int256"
					}
				],
				"types": {
					"t_int256": {
						"encoding": "inplace",
						"label": "int256",
						"numberOfBytes": "32"
					},
					"t_mapping(t_string_memory_ptr,t_string_storage)": {
						"encoding": "mapping",
						"key": "t_string_memory_ptr",
						"label": "mapping(string => string)",
						"numberOfBytes": "32",
						"value": "t_string_storage"
					},
					"t_string_memory_ptr": {
						"encoding": "bytes",
						"label": "string",
						"numberOfBytes": "32"
					},
					"t_string_storage": {
						"encoding": "bytes",
						"label": "string",
						"numberOfBytes": "32"
					}
				}
			},
			"userdoc": {
				"kind": "user",
				"methods": {},
				"version": 1
			}
		}
	}
}