{
  "contractName": "Inbox",
  "abi": [
    {
      "anonymous": false,
      "inputs": [
        {
          "indexed": false,
          "internalType": "string",
          "name": "response",
          "type": "string"
        }
      ],
      "name": "inboxResponse",
      "type": "event"
    },
    {
      "anonymous": false,
      "inputs": [
        {
          "indexed": false,
          "internalType": "string",
          "name": "_ipfsHash",
          "type": "string"
        },
        {
          "indexed": false,
          "internalType": "string",
          "name": "_address",
          "type": "string"
        }
      ],
      "name": "ipfsSent",
      "type": "event"
    },
    {
      "inputs": [
        {
          "internalType": "string",
          "name": "",
          "type": "string"
        }
      ],
      "name": "ipfsInbox",
      "outputs": [
        {
          "internalType": "string",
          "name": "",
          "type": "string"
        }
      ],
      "stateMutability": "view",
      "type": "function",
      "constant": true
    },
    {
      "inputs": [
        {
          "internalType": "string",
          "name": "_address",
          "type": "string"
        },
        {
          "internalType": "string",
          "name": "_ipfsHash",
          "type": "string"
        }
      ],
      "name": "sendIPFS",
      "outputs": [],
      "stateMutability": "nonpayable",
      "type": "function"
    },
    {
      "inputs": [
        {
          "internalType": "string",
          "name": "_address",
          "type": "string"
        }
      ],
      "name": "getHash",
      "outputs": [
        {
          "internalType": "string",
          "name": "",
          "type": "string"
        }
      ],
      "stateMutability": "view",
      "type": "function",
      "constant": true
    }
  ],
  "bytecode": "0x608060405234801561001057600080fd5b506108fa806100206000396000f3fe608060405234801561001057600080fd5b50600436106100415760003560e01c80633bc86509146100465780635b6beeb914610062578063d9fb97f714610092575b600080fd5b610060600480360381019061005b91906103f0565b6100c2565b005b61007c60048036038101906100779190610468565b61012b565b6040516100899190610530565b60405180910390f35b6100ac60048036038101906100a79190610468565b6101e0565b6040516100b99190610530565b60405180910390f35b806000836040516100d3919061058e565b908152602001604051809103902090816100ed91906107bb565b507fe20751acac1c1604f322f90c67a302e99b44a472645e625269c08832cded2340818360405161011f92919061088d565b60405180910390a15050565b60606000808360405161013e919061058e565b90815260200160405180910390208054610157906105d4565b80601f0160208091040260200160405190810160405280929190818152602001828054610183906105d4565b80156101d05780601f106101a5576101008083540402835291602001916101d0565b820191906000526020600020905b8154815290600101906020018083116101b357829003601f168201915b5050505050905080915050919050565b6000818051602081018201805184825260208301602085012081835280955050505050506000915090508054610215906105d4565b80601f0160208091040260200160405190810160405280929190818152602001828054610241906105d4565b801561028e5780601f106102635761010080835404028352916020019161028e565b820191906000526020600020905b81548152906001019060200180831161027157829003601f168201915b505050505081565b6000604051905090565b600080fd5b600080fd5b600080fd5b600080fd5b6000601f19601f8301169050919050565b7f4e487b7100000000000000000000000000000000000000000000000000000000600052604160045260246000fd5b6102fd826102b4565b810181811067ffffffffffffffff8211171561031c5761031b6102c5565b5b80604052505050565b600061032f610296565b905061033b82826102f4565b919050565b600067ffffffffffffffff82111561035b5761035a6102c5565b5b610364826102b4565b9050602081019050919050565b82818337600083830152505050565b600061039361038e84610340565b610325565b9050828152602081018484840111156103af576103ae6102af565b5b6103ba848285610371565b509392505050565b600082601f8301126103d7576103d66102aa565b5b81356103e7848260208601610380565b91505092915050565b60008060408385031215610407576104066102a0565b5b600083013567ffffffffffffffff811115610425576104246102a5565b5b610431858286016103c2565b925050602083013567ffffffffffffffff811115610452576104516102a5565b5b61045e858286016103c2565b9150509250929050565b60006020828403121561047e5761047d6102a0565b5b600082013567ffffffffffffffff81111561049c5761049b6102a5565b5b6104a8848285016103c2565b91505092915050565b600081519050919050565b600082825260208201905092915050565b60005b838110156104eb5780820151818401526020810190506104d0565b60008484015250505050565b6000610502826104b1565b61050c81856104bc565b935061051c8185602086016104cd565b610525816102b4565b840191505092915050565b6000602082019050818103600083015261054a81846104f7565b905092915050565b600081905092915050565b6000610568826104b1565b6105728185610552565b93506105828185602086016104cd565b80840191505092915050565b600061059a828461055d565b915081905092915050565b7f4e487b7100000000000000000000000000000000000000000000000000000000600052602260045260246000fd5b600060028204905060018216806105ec57607f821691505b6020821081036105ff576105fe6105a5565b5b50919050565b60008190508160005260206000209050919050565b60006020601f8301049050919050565b600082821b905092915050565b6000600883026106677fffffffffffffffffffffffffffffffffffffffffffffffffffffffffffffffff8261062a565b610671868361062a565b95508019841693508086168417925050509392505050565b6000819050919050565b6000819050919050565b60006106b86106b36106ae84610689565b610693565b610689565b9050919050565b6000819050919050565b6106d28361069d565b6106e66106de826106bf565b848454610637565b825550505050565b600090565b6106fb6106ee565b6107068184846106c9565b505050565b5b8181101561072a5761071f6000826106f3565b60018101905061070c565b5050565b601f82111561076f5761074081610605565b6107498461061a565b81016020851015610758578190505b61076c6107648561061a565b83018261070b565b50505b505050565b600082821c905092915050565b600061079260001984600802610774565b1980831691505092915050565b60006107ab8383610781565b9150826002028217905092915050565b6107c4826104b1565b67ffffffffffffffff8111156107dd576107dc6102c5565b5b6107e782546105d4565b6107f282828561072e565b600060209050601f8311600181146108255760008415610813578287015190505b61081d858261079f565b865550610885565b601f19841661083386610605565b60005b8281101561085b57848901518255600182019150602085019450602081019050610836565b868310156108785784890151610874601f891682610781565b8355505b6001600288020188555050505b505050505050565b600060408201905081810360008301526108a781856104f7565b905081810360208301526108bb81846104f7565b9050939250505056fea2646970667358221220a3a3ef4b02df24336435bc0480f43104abc9677f4e0951eb13fb5433bd6b9f1964736f6c63430008110033",
  "immutableReferences": {},
  "source": "// SPDX-License-Identifier: MIT\r\npragma solidity ^0.8.0;\r\n\r\n\r\ncontract Inbox {\r\n    mapping(string => string) public ipfsInbox;\r\n    //Events\r\n    event ipfsSent(string _ipfsHash, string _address);\r\n    event inboxResponse(string response);\r\n    //Modifiers\r\n    modifier notFull (string memory _string) {\r\n        bytes memory stringTest = bytes(_string);\r\n        require(stringTest.length == 0);\r\n        _;\r\n    }\r\n    //takes in receiver's address and IPFS hash. Places the IPFSadress in the receiver's inbox\r\n    function sendIPFS(string memory _address, string memory _ipfsHash) public {\r\n        ipfsInbox[_address] = _ipfsHash;\r\n        emit ipfsSent(_ipfsHash, _address);\r\n    }\r\n    //retrieves hash\r\n    function getHash(string memory _address) public view returns (string memory) {\r\n        string memory ipfs_hash = ipfsInbox[_address];\r\n        //emit inboxResponse(ipfs_hash);\r\n        return ipfs_hash;\r\n    }\r\n}\r\n",
  "sourcePath": "C:\\Users\\User\\WebstormProjects\\block\\contracts\\test.sol",
  "compiler": {
    "name": "solc",
    "version": "0.8.17+commit.8df45f5f.Emscripten.clang"
  },
  "schemaVersion": "3.4.11",
  "updatedAt": "2022-12-21T06:12:34.477Z",
  "networkType": "ethereum",
  "devdoc": {
    "kind": "dev",
    "methods": {},
    "version": 1
  },
  "userdoc": {
    "kind": "user",
    "methods": {},
    "version": 1
  }
}