{
  "contractName": "Inbox",
  "abi": [
    {
      "anonymous": false,
      "inputs": [
        {
          "indexed": false,
          "internalType": "string",
          "name": "response",
          "type": "string"
        }
      ],
      "name": "inboxResponse",
      "type": "event"
    },
    {
      "anonymous": false,
      "inputs": [
        {
          "indexed": false,
          "internalType": "string",
          "name": "_ipfsHash",
          "type": "string"
        },
        {
          "indexed": false,
          "internalType": "string",
          "name": "_address",
          "type": "string"
        }
      ],
      "name": "ipfsSent",
      "type": "event"
    },
    {
      "inputs": [
        {
          "internalType": "string",
          "name": "",
          "type": "string"
        }
      ],
      "name": "ipfsInbox",
      "outputs": [
        {
          "internalType": "string",
          "name": "",
          "type": "string"
        }
      ],
      "stateMutability": "view",
      "type": "function"
    },
    {
      "inputs": [
        {
          "internalType": "string",
          "name": "_address",
          "type": "string"
        },
        {
          "internalType": "string",
          "name": "_ipfsHash",
          "type": "string"
        }
      ],
      "name": "sendIPFS",
      "outputs": [],
      "stateMutability": "nonpayable",
      "type": "function"
    },
    {
      "inputs": [
        {
          "internalType": "string",
          "name": "_address",
          "type": "string"
        }
      ],
      "name": "getHash",
      "outputs": [
        {
          "internalType": "string",
          "name": "",
          "type": "string"
        }
      ],
      "stateMutability": "view",
      "type": "function"
    },
    {
      "inputs": [],
      "name": "getZeroNumber",
      "outputs": [
        {
          "internalType": "int256",
          "name": "",
          "type": "int256"
        }
      ],
      "stateMutability": "view",
      "type": "function"
    }
  ],
  "bytecode": "0x6080604052607b60015534801561001557600080fd5b50610961806100256000396000f3fe608060405234801561001057600080fd5b506004361061004c5760003560e01c80633bc86509146100515780635b6beeb91461006d578063a5dbcba31461009d578063d9fb97f7146100bb575b600080fd5b61006b60048036038101906100669190610423565b6100eb565b005b6100876004803603810190610082919061049b565b610154565b6040516100949190610563565b60405180910390f35b6100a5610209565b6040516100b2919061059e565b60405180910390f35b6100d560048036038101906100d0919061049b565b610213565b6040516100e29190610563565b60405180910390f35b806000836040516100fc91906105f5565b908152602001604051809103902090816101169190610822565b507fe20751acac1c1604f322f90c67a302e99b44a472645e625269c08832cded234081836040516101489291906108f4565b60405180910390a15050565b60606000808360405161016791906105f5565b908152602001604051809103902080546101809061063b565b80601f01602080910402602001604051908101604052809291908181526020018280546101ac9061063b565b80156101f95780601f106101ce576101008083540402835291602001916101f9565b820191906000526020600020905b8154815290600101906020018083116101dc57829003601f168201915b5050505050905080915050919050565b6000600154905090565b60008180516020810182018051848252602083016020850120818352809550505050505060009150905080546102489061063b565b80601f01602080910402602001604051908101604052809291908181526020018280546102749061063b565b80156102c15780601f10610296576101008083540402835291602001916102c1565b820191906000526020600020905b8154815290600101906020018083116102a457829003601f168201915b505050505081565b6000604051905090565b600080fd5b600080fd5b600080fd5b600080fd5b6000601f19601f8301169050919050565b7f4e487b7100000000000000000000000000000000000000000000000000000000600052604160045260246000fd5b610330826102e7565b810181811067ffffffffffffffff8211171561034f5761034e6102f8565b5b80604052505050565b60006103626102c9565b905061036e8282610327565b919050565b600067ffffffffffffffff82111561038e5761038d6102f8565b5b610397826102e7565b9050602081019050919050565b82818337600083830152505050565b60006103c66103c184610373565b610358565b9050828152602081018484840111156103e2576103e16102e2565b5b6103ed8482856103a4565b509392505050565b600082601f83011261040a576104096102dd565b5b813561041a8482602086016103b3565b91505092915050565b6000806040838503121561043a576104396102d3565b5b600083013567ffffffffffffffff811115610458576104576102d8565b5b610464858286016103f5565b925050602083013567ffffffffffffffff811115610485576104846102d8565b5b610491858286016103f5565b9150509250929050565b6000602082840312156104b1576104b06102d3565b5b600082013567ffffffffffffffff8111156104cf576104ce6102d8565b5b6104db848285016103f5565b91505092915050565b600081519050919050565b600082825260208201905092915050565b60005b8381101561051e578082015181840152602081019050610503565b60008484015250505050565b6000610535826104e4565b61053f81856104ef565b935061054f818560208601610500565b610558816102e7565b840191505092915050565b6000602082019050818103600083015261057d818461052a565b905092915050565b6000819050919050565b61059881610585565b82525050565b60006020820190506105b3600083018461058f565b92915050565b600081905092915050565b60006105cf826104e4565b6105d981856105b9565b93506105e9818560208601610500565b80840191505092915050565b600061060182846105c4565b915081905092915050565b7f4e487b7100000000000000000000000000000000000000000000000000000000600052602260045260246000fd5b6000600282049050600182168061065357607f821691505b6020821081036106665761066561060c565b5b50919050565b60008190508160005260206000209050919050565b60006020601f8301049050919050565b600082821b905092915050565b6000600883026106ce7fffffffffffffffffffffffffffffffffffffffffffffffffffffffffffffffff82610691565b6106d88683610691565b95508019841693508086168417925050509392505050565b6000819050919050565b6000819050919050565b600061071f61071a610715846106f0565b6106fa565b6106f0565b9050919050565b6000819050919050565b61073983610704565b61074d61074582610726565b84845461069e565b825550505050565b600090565b610762610755565b61076d818484610730565b505050565b5b818110156107915761078660008261075a565b600181019050610773565b5050565b601f8211156107d6576107a78161066c565b6107b084610681565b810160208510156107bf578190505b6107d36107cb85610681565b830182610772565b50505b505050565b600082821c905092915050565b60006107f9600019846008026107db565b1980831691505092915050565b600061081283836107e8565b9150826002028217905092915050565b61082b826104e4565b67ffffffffffffffff811115610844576108436102f8565b5b61084e825461063b565b610859828285610795565b600060209050601f83116001811461088c576000841561087a578287015190505b6108848582610806565b8655506108ec565b601f19841661089a8661066c565b60005b828110156108c25784890151825560018201915060208501945060208101905061089d565b868310156108df57848901516108db601f8916826107e8565b8355505b6001600288020188555050505b505050505050565b6000604082019050818103600083015261090e818561052a565b90508181036020830152610922818461052a565b9050939250505056fea2646970667358221220a66df1a450375ff26a115f1cbc7a6eacb01c5424ec733c1537edf60f18705efb64736f6c63430008110033",
  "immutableReferences": {},
  "source": "// SPDX-License-Identifier: MIT\r\npragma solidity ^0.8.0;\r\n\r\n\r\ncontract Inbox {\r\n    mapping(string => string) public ipfsInbox;\r\n    int zero = 123;\r\n    //Events\r\n    event ipfsSent(string _ipfsHash, string _address);\r\n    event inboxResponse(string response);\r\n    //Modifiers\r\n    modifier notFull (string memory _string) {\r\n        bytes memory stringTest = bytes(_string);\r\n        require(stringTest.length == 0);\r\n        _;\r\n    }\r\n    //takes in receiver's address and IPFS hash. Places the IPFSadress in the receiver's inbox\r\n    function sendIPFS(string memory _address, string memory _ipfsHash) public {\r\n        ipfsInbox[_address] = _ipfsHash;\r\n        emit ipfsSent(_ipfsHash, _address);\r\n    }\r\n    //retrieves hash\r\n    function getHash(string memory _address) public view returns (string memory) {\r\n        string memory ipfs_hash = ipfsInbox[_address];\r\n        //emit inboxResponse(ipfs_hash);\r\n        return ipfs_hash;\r\n    }\r\n\r\n    function getZeroNumber() public view returns (int) {\r\n        return zero;\r\n    }\r\n}\r\n",
  "sourcePath": "C:\\Users\\User\\WebstormProjects\\block\\contracts\\test.sol",
  "compiler": {
    "name": "solc",
    "version": "0.8.17+commit.8df45f5f.Emscripten.clang"
  },
  "schemaVersion": "3.4.11",
  "updatedAt": "2022-12-24T13:37:58.120Z",
  "devdoc": {
    "kind": "dev",
    "methods": {},
    "version": 1
  },
  "userdoc": {
    "kind": "user",
    "methods": {},
    "version": 1
  }
}